{
  "address": "0x9193E2E0EF14ff8e8245fDf2C2C37af4a6422381",
  "abi": [
    {
      "inputs": [
        {
          "internalType": "contract MastersDAO",
          "name": "masterContract",
          "type": "address"
        }
      ],
      "stateMutability": "nonpayable",
      "type": "constructor"
    },
    {
      "inputs": [],
      "name": "ApprovalCallerNotOwnerNorApproved",
      "type": "error"
    },
    {
      "inputs": [],
      "name": "ApprovalQueryForNonexistentToken",
      "type": "error"
    },
    {
      "inputs": [],
      "name": "ApprovalToCurrentOwner",
      "type": "error"
    },
    {
      "inputs": [],
      "name": "ApproveToCaller",
      "type": "error"
    },
    {
      "inputs": [],
      "name": "BalanceQueryForZeroAddress",
      "type": "error"
    },
    {
      "inputs": [],
      "name": "MintToZeroAddress",
      "type": "error"
    },
    {
      "inputs": [],
      "name": "MintZeroQuantity",
      "type": "error"
    },
    {
      "inputs": [],
      "name": "OwnerQueryForNonexistentToken",
      "type": "error"
    },
    {
      "inputs": [],
      "name": "TransferCallerNotOwnerNorApproved",
      "type": "error"
    },
    {
      "inputs": [],
      "name": "TransferFromIncorrectOwner",
      "type": "error"
    },
    {
      "inputs": [],
      "name": "TransferToNonERC721ReceiverImplementer",
      "type": "error"
    },
    {
      "inputs": [],
      "name": "TransferToZeroAddress",
      "type": "error"
    },
    {
      "inputs": [],
      "name": "URIQueryForNonexistentToken",
      "type": "error"
    },
    {
      "anonymous": false,
      "inputs": [
        {
          "indexed": true,
          "internalType": "address",
          "name": "owner",
          "type": "address"
        },
        {
          "indexed": true,
          "internalType": "address",
          "name": "approved",
          "type": "address"
        },
        {
          "indexed": true,
          "internalType": "uint256",
          "name": "tokenId",
          "type": "uint256"
        }
      ],
      "name": "Approval",
      "type": "event"
    },
    {
      "anonymous": false,
      "inputs": [
        {
          "indexed": true,
          "internalType": "address",
          "name": "owner",
          "type": "address"
        },
        {
          "indexed": true,
          "internalType": "address",
          "name": "operator",
          "type": "address"
        },
        {
          "indexed": false,
          "internalType": "bool",
          "name": "approved",
          "type": "bool"
        }
      ],
      "name": "ApprovalForAll",
      "type": "event"
    },
    {
      "anonymous": false,
      "inputs": [
        {
          "indexed": true,
          "internalType": "address",
          "name": "from",
          "type": "address"
        },
        {
          "indexed": true,
          "internalType": "address",
          "name": "to",
          "type": "address"
        },
        {
          "indexed": true,
          "internalType": "uint256",
          "name": "tokenId",
          "type": "uint256"
        }
      ],
      "name": "Transfer",
      "type": "event"
    },
    {
      "inputs": [],
      "name": "MAX_SUPPLY",
      "outputs": [
        {
          "internalType": "uint16",
          "name": "",
          "type": "uint16"
        }
      ],
      "stateMutability": "view",
      "type": "function"
    },
    {
      "inputs": [],
      "name": "PRICE",
      "outputs": [
        {
          "internalType": "uint256",
          "name": "",
          "type": "uint256"
        }
      ],
      "stateMutability": "view",
      "type": "function"
    },
    {
      "inputs": [
        {
          "internalType": "address",
          "name": "to",
          "type": "address"
        },
        {
          "internalType": "uint256",
          "name": "tokenId",
          "type": "uint256"
        }
      ],
      "name": "approve",
      "outputs": [],
      "stateMutability": "nonpayable",
      "type": "function"
    },
    {
      "inputs": [
        {
          "internalType": "address",
          "name": "owner",
          "type": "address"
        }
      ],
      "name": "balanceOf",
      "outputs": [
        {
          "internalType": "uint256",
          "name": "",
          "type": "uint256"
        }
      ],
      "stateMutability": "view",
      "type": "function"
    },
    {
      "inputs": [
        {
          "internalType": "uint256",
          "name": "tokenId",
          "type": "uint256"
        }
      ],
      "name": "getApproved",
      "outputs": [
        {
          "internalType": "address",
          "name": "",
          "type": "address"
        }
      ],
      "stateMutability": "view",
      "type": "function"
    },
    {
      "inputs": [
        {
          "internalType": "address",
          "name": "owner",
          "type": "address"
        },
        {
          "internalType": "address",
          "name": "operator",
          "type": "address"
        }
      ],
      "name": "isApprovedForAll",
      "outputs": [
        {
          "internalType": "bool",
          "name": "",
          "type": "bool"
        }
      ],
      "stateMutability": "view",
      "type": "function"
    },
    {
      "inputs": [
        {
          "internalType": "uint8",
          "name": "amount",
          "type": "uint8"
        }
      ],
      "name": "mint",
      "outputs": [],
      "stateMutability": "payable",
      "type": "function"
    },
    {
      "inputs": [],
      "name": "name",
      "outputs": [
        {
          "internalType": "string",
          "name": "",
          "type": "string"
        }
      ],
      "stateMutability": "view",
      "type": "function"
    },
    {
      "inputs": [
        {
          "internalType": "uint256",
          "name": "tokenId",
          "type": "uint256"
        }
      ],
      "name": "ownerOf",
      "outputs": [
        {
          "internalType": "address",
          "name": "",
          "type": "address"
        }
      ],
      "stateMutability": "view",
      "type": "function"
    },
    {
      "inputs": [
        {
          "internalType": "address",
          "name": "from",
          "type": "address"
        },
        {
          "internalType": "address",
          "name": "to",
          "type": "address"
        },
        {
          "internalType": "uint256",
          "name": "tokenId",
          "type": "uint256"
        }
      ],
      "name": "safeTransferFrom",
      "outputs": [],
      "stateMutability": "nonpayable",
      "type": "function"
    },
    {
      "inputs": [
        {
          "internalType": "address",
          "name": "from",
          "type": "address"
        },
        {
          "internalType": "address",
          "name": "to",
          "type": "address"
        },
        {
          "internalType": "uint256",
          "name": "tokenId",
          "type": "uint256"
        },
        {
          "internalType": "bytes",
          "name": "_data",
          "type": "bytes"
        }
      ],
      "name": "safeTransferFrom",
      "outputs": [],
      "stateMutability": "nonpayable",
      "type": "function"
    },
    {
      "inputs": [
        {
          "internalType": "address",
          "name": "operator",
          "type": "address"
        },
        {
          "internalType": "bool",
          "name": "approved",
          "type": "bool"
        }
      ],
      "name": "setApprovalForAll",
      "outputs": [],
      "stateMutability": "nonpayable",
      "type": "function"
    },
    {
      "inputs": [
        {
          "internalType": "bytes4",
          "name": "interfaceId",
          "type": "bytes4"
        }
      ],
      "name": "supportsInterface",
      "outputs": [
        {
          "internalType": "bool",
          "name": "",
          "type": "bool"
        }
      ],
      "stateMutability": "view",
      "type": "function"
    },
    {
      "inputs": [],
      "name": "symbol",
      "outputs": [
        {
          "internalType": "string",
          "name": "",
          "type": "string"
        }
      ],
      "stateMutability": "view",
      "type": "function"
    },
    {
      "inputs": [
        {
          "internalType": "uint256",
          "name": "tokenId",
          "type": "uint256"
        }
      ],
      "name": "tokenURI",
      "outputs": [
        {
          "internalType": "string",
          "name": "",
          "type": "string"
        }
      ],
      "stateMutability": "view",
      "type": "function"
    },
    {
      "inputs": [],
      "name": "totalSupply",
      "outputs": [
        {
          "internalType": "uint256",
          "name": "",
          "type": "uint256"
        }
      ],
      "stateMutability": "view",
      "type": "function"
    },
    {
      "inputs": [
        {
          "internalType": "address",
          "name": "from",
          "type": "address"
        },
        {
          "internalType": "address",
          "name": "to",
          "type": "address"
        },
        {
          "internalType": "uint256",
          "name": "tokenId",
          "type": "uint256"
        }
      ],
      "name": "transferFrom",
      "outputs": [],
      "stateMutability": "nonpayable",
      "type": "function"
    }
  ],
  "transactionHash": "0xaaa9b104e60e0dae6e874547a8d2427df70f782fd7427a75611fa572e14b689a",
  "args": [
    "0xe154fa3aF0950952A55805cC144BDc9ABd3ACF3F"
  ],
  "numDeployments": 1,
  "solcInputHash": "3df17b35c43fdb07055588b37ca999ce",
  "bytecode": "0x60806040523480156200001157600080fd5b506040516200139c3803806200139c833981016040819052620000349162000171565b60405180604001604052806008815260200167546573744974656d60c01b81525060405180604001604052806002815260200161544960f01b815250816002908051906020019062000088929190620000cb565b5080516200009e906003906020840190620000cb565b50600080555050600880546001600160a01b0319166001600160a01b0392909216919091179055620001de565b828054620000d990620001a1565b90600052602060002090601f016020900481019282620000fd576000855562000148565b82601f106200011857805160ff191683800117855562000148565b8280016001018555821562000148579182015b82811115620001485782518255916020019190600101906200012b565b50620001569291506200015a565b5090565b5b808211156200015657600081556001016200015b565b60006020828403121562000183578081fd5b81516001600160a01b03811681146200019a578182fd5b9392505050565b600181811c90821680620001b657607f821691505b60208210811415620001d857634e487b7160e01b600052602260045260246000fd5b50919050565b6111ae80620001ee6000396000f3fe6080604052600436106100fe5760003560e01c80636352211e1161009557806395d89b411161006457806395d89b41146102ae578063a22cb465146102c3578063b88d4fde146102e3578063c87b56dd14610303578063e985e9c51461032357600080fd5b80636352211e146102405780636ecd23061461026057806370a08231146102735780638d859f3e1461029357600080fd5b806318160ddd116100d157806318160ddd146101b457806323b872dd146101d757806332cb6b0c146101f757806342842e0e1461022057600080fd5b806301ffc9a71461010357806306fdde0314610138578063081812fc1461015a578063095ea7b314610192575b600080fd5b34801561010f57600080fd5b5061012361011e366004610f79565b61036c565b60405190151581526020015b60405180910390f35b34801561014457600080fd5b5061014d6103be565b60405161012f9190611082565b34801561016657600080fd5b5061017a610175366004610fb1565b610450565b6040516001600160a01b03909116815260200161012f565b34801561019e57600080fd5b506101b26101ad366004610f50565b610494565b005b3480156101c057600080fd5b50600154600054035b60405190815260200161012f565b3480156101e357600080fd5b506101b26101f2366004610e06565b610567565b34801561020357600080fd5b5061020d6107d081565b60405161ffff909116815260200161012f565b34801561022c57600080fd5b506101b261023b366004610e06565b610577565b34801561024c57600080fd5b5061017a61025b366004610fb1565b610592565b6101b261026e366004610fc9565b61059d565b34801561027f57600080fd5b506101c961028e366004610dba565b6106ce565b34801561029f57600080fd5b506101c966b1a2bc2ec5000081565b3480156102ba57600080fd5b5061014d61071d565b3480156102cf57600080fd5b506101b26102de366004610f16565b61072c565b3480156102ef57600080fd5b506101b26102fe366004610e41565b6107c2565b34801561030f57600080fd5b5061014d61031e366004610fb1565b61080c565b34801561032f57600080fd5b5061012361033e366004610dd4565b6001600160a01b03918216600090815260076020908152604080832093909416825291909152205460ff1690565b60006301ffc9a760e01b6001600160e01b03198316148061039d57506380ac58cd60e01b6001600160e01b03198316145b806103b85750635b5e139f60e01b6001600160e01b03198316145b92915050565b6060600280546103cd906110f8565b80601f01602080910402602001604051908101604052809291908181526020018280546103f9906110f8565b80156104465780601f1061041b57610100808354040283529160200191610446565b820191906000526020600020905b81548152906001019060200180831161042957829003601f168201915b5050505050905090565b600061045b8261089e565b610478576040516333d1c03960e21b815260040160405180910390fd5b506000908152600660205260409020546001600160a01b031690565b600061049f826108c5565b9050806001600160a01b0316836001600160a01b031614156104d45760405163250fdee360e21b815260040160405180910390fd5b336001600160a01b0382161461050b576104ee813361033e565b61050b576040516367d9dca160e11b815260040160405180910390fd5b60008281526006602052604080822080546001600160a01b0319166001600160a01b0387811691821790925591518593918516917f8c5be1e5ebec7d5bd14f71427d1e84f3dd0314c0f7b2291e5b200ac8c7c3b92591a4505050565b610572838383610926565b505050565b610572838383604051806020016040528060008152506107c2565b60006103b8826108c5565b6107d060ff82166105b16001546000540390565b6105bb9190611095565b11156106025760405162461bcd60e51b8152602060048201526011602482015270657863656564206d617820737570706c7960781b60448201526064015b60405180910390fd5b3461061766b1a2bc2ec5000060ff84166110ad565b146106545760405162461bcd60e51b815260206004820152600d60248201526c3830bcb6b2b73a1032b93937b960991b60448201526064016105f9565b336106628160ff8416610ac9565b600854604051633fe952a360e01b81526001600160a01b03838116600483015260ff8516602483015290911690633fe952a390604401600060405180830381600087803b1580156106b257600080fd5b505af11580156106c6573d6000803e3d6000fd5b505050505050565b60006001600160a01b0382166106f7576040516323d3ad8160e21b815260040160405180910390fd5b506001600160a01b031660009081526005602052604090205467ffffffffffffffff1690565b6060600380546103cd906110f8565b6001600160a01b0382163314156107565760405163b06307db60e01b815260040160405180910390fd5b3360008181526007602090815260408083206001600160a01b03871680855290835292819020805460ff191686151590811790915590519081529192917f17307eab39ab6107e8899845ad3d59bd9653f200f220920489ca2b5937696c31910160405180910390a35050565b6107cd848484610926565b6001600160a01b0383163b15610806576107e984848484610ae7565b610806576040516368d2bf6b60e11b815260040160405180910390fd5b50505050565b60606108178261089e565b61083457604051630a14c4b560e41b815260040160405180910390fd5b600061084b60408051602081019091526000815290565b905080516000141561086c5760405180602001604052806000815250610897565b8061087684610bde565b604051602001610887929190611016565b6040516020818303038152906040525b9392505050565b60008054821080156103b8575050600090815260046020526040902054600160e01b161590565b60008160005481101561090d57600081815260046020526040902054600160e01b811661090b575b806108975750600019016000818152600460205260409020546108ed565b505b604051636f96cda160e11b815260040160405180910390fd5b6000610931826108c5565b9050836001600160a01b0316816001600160a01b0316146109645760405162a1148160e81b815260040160405180910390fd5b6000336001600160a01b03861614806109825750610982853361033e565b8061099d57503361099284610450565b6001600160a01b0316145b9050806109bd57604051632ce44b5f60e11b815260040160405180910390fd5b6001600160a01b0384166109e457604051633a954ecd60e21b815260040160405180910390fd5b600083815260066020908152604080832080546001600160a01b03191690556001600160a01b038881168452600583528184208054600019019055871683528083208054600101905585835260049091529020600160e11b4260a01b861781179091558216610a815760018301600081815260046020526040902054610a7f576000548114610a7f5760008181526004602052604090208390555b505b82846001600160a01b0316866001600160a01b03167fddf252ad1be2c89b69c2b068fc378daa952ba7f163c4a11628f55a4df523b3ef60405160405180910390a45050505050565b610ae3828260405180602001604052806000815250610c2d565b5050565b604051630a85bd0160e11b81526000906001600160a01b0385169063150b7a0290610b1c903390899088908890600401611045565b602060405180830381600087803b158015610b3657600080fd5b505af1925050508015610b66575060408051601f3d908101601f19168201909252610b6391810190610f95565b60015b610bc1573d808015610b94576040519150601f19603f3d011682016040523d82523d6000602084013e610b99565b606091505b508051610bb9576040516368d2bf6b60e11b815260040160405180910390fd5b805181602001fd5b6001600160e01b031916630a85bd0160e11b149050949350505050565b604080516080810191829052607f0190826030600a8206018353600a90045b8015610c1b57600183039250600a81066030018353600a9004610bfd565b50819003601f19909101908152919050565b6000546001600160a01b038416610c5657604051622e076360e81b815260040160405180910390fd5b82610c745760405163b562e8dd60e01b815260040160405180910390fd5b6001600160a01b03841660008181526005602090815260408083208054680100000000000000018902019055848352600490915290204260a01b86176001861460e11b1790558190818501903b15610d49575b60405182906001600160a01b038816906000907fddf252ad1be2c89b69c2b068fc378daa952ba7f163c4a11628f55a4df523b3ef908290a4610d126000878480600101955087610ae7565b610d2f576040516368d2bf6b60e11b815260040160405180910390fd5b808210610cc7578260005414610d4457600080fd5b610d8e565b5b6040516001830192906001600160a01b038816906000907fddf252ad1be2c89b69c2b068fc378daa952ba7f163c4a11628f55a4df523b3ef908290a4808210610d4a575b5060009081556108069085838684565b80356001600160a01b0381168114610db557600080fd5b919050565b600060208284031215610dcb578081fd5b61089782610d9e565b60008060408385031215610de6578081fd5b610def83610d9e565b9150610dfd60208401610d9e565b90509250929050565b600080600060608486031215610e1a578081fd5b610e2384610d9e565b9250610e3160208501610d9e565b9150604084013590509250925092565b60008060008060808587031215610e56578081fd5b610e5f85610d9e565b9350610e6d60208601610d9e565b925060408501359150606085013567ffffffffffffffff80821115610e90578283fd5b818701915087601f830112610ea3578283fd5b813581811115610eb557610eb5611149565b604051601f8201601f19908116603f01168101908382118183101715610edd57610edd611149565b816040528281528a6020848701011115610ef5578586fd5b82602086016020830137918201602001949094529598949750929550505050565b60008060408385031215610f28578182fd5b610f3183610d9e565b915060208301358015158114610f45578182fd5b809150509250929050565b60008060408385031215610f62578182fd5b610f6b83610d9e565b946020939093013593505050565b600060208284031215610f8a578081fd5b81356108978161115f565b600060208284031215610fa6578081fd5b81516108978161115f565b600060208284031215610fc2578081fd5b5035919050565b600060208284031215610fda578081fd5b813560ff81168114610897578182fd5b600081518084526110028160208601602086016110cc565b601f01601f19169290920160200192915050565b600083516110288184602088016110cc565b83519083019061103c8183602088016110cc565b01949350505050565b6001600160a01b038581168252841660208201526040810183905260806060820181905260009061107890830184610fea565b9695505050505050565b6020815260006108976020830184610fea565b600082198211156110a8576110a8611133565b500190565b60008160001904831182151516156110c7576110c7611133565b500290565b60005b838110156110e75781810151838201526020016110cf565b838111156108065750506000910152565b600181811c9082168061110c57607f821691505b6020821081141561112d57634e487b7160e01b600052602260045260246000fd5b50919050565b634e487b7160e01b600052601160045260246000fd5b634e487b7160e01b600052604160045260246000fd5b6001600160e01b03198116811461117557600080fd5b5056fea264697066735822122075ef432f227be70477c8860c1c11a4fd185851b584667c5a2660d18f06c1227364736f6c63430008040033",
  "devdoc": {
    "kind": "dev",
    "methods": {
      "approve(address,uint256)": {
        "details": "See {IERC721-approve}."
      },
      "balanceOf(address)": {
        "details": "See {IERC721-balanceOf}."
      },
      "getApproved(uint256)": {
        "details": "See {IERC721-getApproved}."
      },
      "isApprovedForAll(address,address)": {
        "details": "See {IERC721-isApprovedForAll}."
      },
      "name()": {
        "details": "See {IERC721Metadata-name}."
      },
      "ownerOf(uint256)": {
        "details": "See {IERC721-ownerOf}."
      },
      "safeTransferFrom(address,address,uint256)": {
        "details": "See {IERC721-safeTransferFrom}."
      },
      "safeTransferFrom(address,address,uint256,bytes)": {
        "details": "See {IERC721-safeTransferFrom}."
      },
      "setApprovalForAll(address,bool)": {
        "details": "See {IERC721-setApprovalForAll}."
      },
      "supportsInterface(bytes4)": {
        "details": "See {IERC165-supportsInterface}."
      },
      "symbol()": {
        "details": "See {IERC721Metadata-symbol}."
      },
      "tokenURI(uint256)": {
        "details": "See {IERC721Metadata-tokenURI}."
      },
      "totalSupply()": {
        "details": "Returns the total number of tokens in existence. Burned tokens will reduce the count.  To get the total number of tokens minted, please see `_totalMinted`."
      },
      "transferFrom(address,address,uint256)": {
        "details": "See {IERC721-transferFrom}."
      }
    },
    "version": 1
  },
  "userdoc": {
    "errors": {
      "ApprovalCallerNotOwnerNorApproved()": [
        {
          "notice": "The caller must own the token or be an approved operator."
        }
      ],
      "ApprovalQueryForNonexistentToken()": [
        {
          "notice": "The token does not exist."
        }
      ],
      "ApprovalToCurrentOwner()": [
        {
          "notice": "The caller cannot approve to the current owner."
        }
      ],
      "ApproveToCaller()": [
        {
          "notice": "The caller cannot approve to their own address."
        }
      ],
      "BalanceQueryForZeroAddress()": [
        {
          "notice": "Cannot query the balance for the zero address."
        }
      ],
      "MintToZeroAddress()": [
        {
          "notice": "Cannot mint to the zero address."
        }
      ],
      "MintZeroQuantity()": [
        {
          "notice": "The quantity of tokens minted must be more than zero."
        }
      ],
      "OwnerQueryForNonexistentToken()": [
        {
          "notice": "The token does not exist."
        }
      ],
      "TransferCallerNotOwnerNorApproved()": [
        {
          "notice": "The caller must own the token or be an approved operator."
        }
      ],
      "TransferFromIncorrectOwner()": [
        {
          "notice": "The token must be owned by `from`."
        }
      ],
      "TransferToNonERC721ReceiverImplementer()": [
        {
          "notice": "Cannot safely transfer to a contract that does not implement the ERC721Receiver interface."
        }
      ],
      "TransferToZeroAddress()": [
        {
          "notice": "Cannot transfer to the zero address."
        }
      ],
      "URIQueryForNonexistentToken()": [
        {
          "notice": "The token does not exist."
        }
      ]
    },
    "kind": "user",
    "methods": {},
    "version": 1
  },
  "storageLayout": {
    "storage": [
      {
        "astId": 2622,
        "contract": "contracts/ItemNFT.sol:ItemNFT",
        "label": "_currentIndex",
        "offset": 0,
        "slot": "0",
        "type": "t_uint256"
      },
      {
        "astId": 2624,
        "contract": "contracts/ItemNFT.sol:ItemNFT",
        "label": "_burnCounter",
        "offset": 0,
        "slot": "1",
        "type": "t_uint256"
      },
      {
        "astId": 2626,
        "contract": "contracts/ItemNFT.sol:ItemNFT",
        "label": "_name",
        "offset": 0,
        "slot": "2",
        "type": "t_string_storage"
      },
      {
        "astId": 2628,
        "contract": "contracts/ItemNFT.sol:ItemNFT",
        "label": "_symbol",
        "offset": 0,
        "slot": "3",
        "type": "t_string_storage"
      },
      {
        "astId": 2632,
        "contract": "contracts/ItemNFT.sol:ItemNFT",
        "label": "_packedOwnerships",
        "offset": 0,
        "slot": "4",
        "type": "t_mapping(t_uint256,t_uint256)"
      },
      {
        "astId": 2636,
        "contract": "contracts/ItemNFT.sol:ItemNFT",
        "label": "_packedAddressData",
        "offset": 0,
        "slot": "5",
        "type": "t_mapping(t_address,t_uint256)"
      },
      {
        "astId": 2640,
        "contract": "contracts/ItemNFT.sol:ItemNFT",
        "label": "_tokenApprovals",
        "offset": 0,
        "slot": "6",
        "type": "t_mapping(t_uint256,t_address)"
      },
      {
        "astId": 2646,
        "contract": "contracts/ItemNFT.sol:ItemNFT",
        "label": "_operatorApprovals",
        "offset": 0,
        "slot": "7",
        "type": "t_mapping(t_address,t_mapping(t_address,t_bool))"
      },
      {
        "astId": 2029,
        "contract": "contracts/ItemNFT.sol:ItemNFT",
        "label": "_masterContract",
        "offset": 0,
        "slot": "8",
        "type": "t_contract(MastersDAO)2537"
      }
    ],
    "types": {
      "t_address": {
        "encoding": "inplace",
        "label": "address",
        "numberOfBytes": "20"
      },
      "t_bool": {
        "encoding": "inplace",
        "label": "bool",
        "numberOfBytes": "1"
      },
      "t_contract(MastersDAO)2537": {
        "encoding": "inplace",
        "label": "contract MastersDAO",
        "numberOfBytes": "20"
      },
      "t_mapping(t_address,t_bool)": {
        "encoding": "mapping",
        "key": "t_address",
        "label": "mapping(address => bool)",
        "numberOfBytes": "32",
        "value": "t_bool"
      },
      "t_mapping(t_address,t_mapping(t_address,t_bool))": {
        "encoding": "mapping",
        "key": "t_address",
        "label": "mapping(address => mapping(address => bool))",
        "numberOfBytes": "32",
        "value": "t_mapping(t_address,t_bool)"
      },
      "t_mapping(t_address,t_uint256)": {
        "encoding": "mapping",
        "key": "t_address",
        "label": "mapping(address => uint256)",
        "numberOfBytes": "32",
        "value": "t_uint256"
      },
      "t_mapping(t_uint256,t_address)": {
        "encoding": "mapping",
        "key": "t_uint256",
        "label": "mapping(uint256 => address)",
        "numberOfBytes": "32",
        "value": "t_address"
      },
      "t_mapping(t_uint256,t_uint256)": {
        "encoding": "mapping",
        "key": "t_uint256",
        "label": "mapping(uint256 => uint256)",
        "numberOfBytes": "32",
        "value": "t_uint256"
      },
      "t_string_storage": {
        "encoding": "bytes",
        "label": "string",
        "numberOfBytes": "32"
      },
      "t_uint256": {
        "encoding": "inplace",
        "label": "uint256",
        "numberOfBytes": "32"
      }
    }
  }
}