{
  "address": "0x052D35fEBc8FB4C59cBF45c4E4F195C9E49DC425",
  "abi": [
    {
      "inputs": [
        {
          "internalType": "string",
          "name": "initContractURI",
          "type": "string"
        },
        {
          "internalType": "string",
          "name": "initBaseURI",
          "type": "string"
        },
        {
          "internalType": "address payable",
          "name": "receiver",
          "type": "address"
        },
        {
          "internalType": "uint120",
          "name": "initPrice",
          "type": "uint120"
        }
      ],
      "stateMutability": "nonpayable",
      "type": "constructor"
    },
    {
      "inputs": [],
      "name": "ApprovalCallerNotOwnerNorApproved",
      "type": "error"
    },
    {
      "inputs": [],
      "name": "ApprovalQueryForNonexistentToken",
      "type": "error"
    },
    {
      "inputs": [],
      "name": "ApprovalToCurrentOwner",
      "type": "error"
    },
    {
      "inputs": [],
      "name": "ApproveToCaller",
      "type": "error"
    },
    {
      "inputs": [],
      "name": "BalanceQueryForZeroAddress",
      "type": "error"
    },
    {
      "inputs": [],
      "name": "MintToZeroAddress",
      "type": "error"
    },
    {
      "inputs": [],
      "name": "MintZeroQuantity",
      "type": "error"
    },
    {
      "inputs": [],
      "name": "OwnerQueryForNonexistentToken",
      "type": "error"
    },
    {
      "inputs": [],
      "name": "TransferCallerNotOwnerNorApproved",
      "type": "error"
    },
    {
      "inputs": [],
      "name": "TransferFromIncorrectOwner",
      "type": "error"
    },
    {
      "inputs": [],
      "name": "TransferToNonERC721ReceiverImplementer",
      "type": "error"
    },
    {
      "inputs": [],
      "name": "TransferToZeroAddress",
      "type": "error"
    },
    {
      "inputs": [],
      "name": "URIQueryForNonexistentToken",
      "type": "error"
    },
    {
      "anonymous": false,
      "inputs": [
        {
          "indexed": true,
          "internalType": "address",
          "name": "owner",
          "type": "address"
        },
        {
          "indexed": true,
          "internalType": "address",
          "name": "approved",
          "type": "address"
        },
        {
          "indexed": true,
          "internalType": "uint256",
          "name": "tokenId",
          "type": "uint256"
        }
      ],
      "name": "Approval",
      "type": "event"
    },
    {
      "anonymous": false,
      "inputs": [
        {
          "indexed": true,
          "internalType": "address",
          "name": "owner",
          "type": "address"
        },
        {
          "indexed": true,
          "internalType": "address",
          "name": "operator",
          "type": "address"
        },
        {
          "indexed": false,
          "internalType": "bool",
          "name": "approved",
          "type": "bool"
        }
      ],
      "name": "ApprovalForAll",
      "type": "event"
    },
    {
      "anonymous": false,
      "inputs": [
        {
          "indexed": true,
          "internalType": "address",
          "name": "previousOwner",
          "type": "address"
        },
        {
          "indexed": true,
          "internalType": "address",
          "name": "newOwner",
          "type": "address"
        }
      ],
      "name": "OwnershipTransferred",
      "type": "event"
    },
    {
      "anonymous": false,
      "inputs": [
        {
          "indexed": false,
          "internalType": "address",
          "name": "account",
          "type": "address"
        }
      ],
      "name": "Paused",
      "type": "event"
    },
    {
      "anonymous": false,
      "inputs": [
        {
          "indexed": true,
          "internalType": "address",
          "name": "from",
          "type": "address"
        },
        {
          "indexed": true,
          "internalType": "address",
          "name": "to",
          "type": "address"
        },
        {
          "indexed": true,
          "internalType": "uint256",
          "name": "tokenId",
          "type": "uint256"
        }
      ],
      "name": "Transfer",
      "type": "event"
    },
    {
      "anonymous": false,
      "inputs": [
        {
          "indexed": false,
          "internalType": "address",
          "name": "account",
          "type": "address"
        }
      ],
      "name": "Unpaused",
      "type": "event"
    },
    {
      "inputs": [],
      "name": "MAX_SUPPLY",
      "outputs": [
        {
          "internalType": "uint16",
          "name": "",
          "type": "uint16"
        }
      ],
      "stateMutability": "view",
      "type": "function"
    },
    {
      "inputs": [
        {
          "internalType": "uint8",
          "name": "amount",
          "type": "uint8"
        }
      ],
      "name": "additionalMint",
      "outputs": [],
      "stateMutability": "nonpayable",
      "type": "function"
    },
    {
      "inputs": [
        {
          "internalType": "address",
          "name": "to",
          "type": "address"
        },
        {
          "internalType": "uint16",
          "name": "amount",
          "type": "uint16"
        }
      ],
      "name": "airdrop",
      "outputs": [],
      "stateMutability": "nonpayable",
      "type": "function"
    },
    {
      "inputs": [
        {
          "internalType": "address",
          "name": "to",
          "type": "address"
        },
        {
          "internalType": "uint256",
          "name": "tokenId",
          "type": "uint256"
        }
      ],
      "name": "approve",
      "outputs": [],
      "stateMutability": "nonpayable",
      "type": "function"
    },
    {
      "inputs": [
        {
          "internalType": "address",
          "name": "owner",
          "type": "address"
        }
      ],
      "name": "balanceOf",
      "outputs": [
        {
          "internalType": "uint256",
          "name": "",
          "type": "uint256"
        }
      ],
      "stateMutability": "view",
      "type": "function"
    },
    {
      "inputs": [],
      "name": "contractURI",
      "outputs": [
        {
          "internalType": "string",
          "name": "",
          "type": "string"
        }
      ],
      "stateMutability": "view",
      "type": "function"
    },
    {
      "inputs": [],
      "name": "flipPublicSale",
      "outputs": [],
      "stateMutability": "nonpayable",
      "type": "function"
    },
    {
      "inputs": [
        {
          "internalType": "uint256",
          "name": "tokenId",
          "type": "uint256"
        }
      ],
      "name": "getApproved",
      "outputs": [
        {
          "internalType": "address",
          "name": "",
          "type": "address"
        }
      ],
      "stateMutability": "view",
      "type": "function"
    },
    {
      "inputs": [
        {
          "internalType": "address",
          "name": "owner",
          "type": "address"
        },
        {
          "internalType": "address",
          "name": "operator",
          "type": "address"
        }
      ],
      "name": "isApprovedForAll",
      "outputs": [
        {
          "internalType": "bool",
          "name": "",
          "type": "bool"
        }
      ],
      "stateMutability": "view",
      "type": "function"
    },
    {
      "inputs": [
        {
          "internalType": "address",
          "name": "",
          "type": "address"
        }
      ],
      "name": "itemRemains",
      "outputs": [
        {
          "internalType": "uint256",
          "name": "",
          "type": "uint256"
        }
      ],
      "stateMutability": "view",
      "type": "function"
    },
    {
      "inputs": [
        {
          "internalType": "uint8",
          "name": "amount",
          "type": "uint8"
        }
      ],
      "name": "mint",
      "outputs": [],
      "stateMutability": "payable",
      "type": "function"
    },
    {
      "inputs": [],
      "name": "name",
      "outputs": [
        {
          "internalType": "string",
          "name": "",
          "type": "string"
        }
      ],
      "stateMutability": "view",
      "type": "function"
    },
    {
      "inputs": [],
      "name": "owner",
      "outputs": [
        {
          "internalType": "address",
          "name": "",
          "type": "address"
        }
      ],
      "stateMutability": "view",
      "type": "function"
    },
    {
      "inputs": [
        {
          "internalType": "uint256",
          "name": "tokenId",
          "type": "uint256"
        }
      ],
      "name": "ownerOf",
      "outputs": [
        {
          "internalType": "address",
          "name": "",
          "type": "address"
        }
      ],
      "stateMutability": "view",
      "type": "function"
    },
    {
      "inputs": [],
      "name": "paused",
      "outputs": [
        {
          "internalType": "bool",
          "name": "",
          "type": "bool"
        }
      ],
      "stateMutability": "view",
      "type": "function"
    },
    {
      "inputs": [],
      "name": "renounceOwnership",
      "outputs": [],
      "stateMutability": "nonpayable",
      "type": "function"
    },
    {
      "inputs": [
        {
          "internalType": "address",
          "name": "from",
          "type": "address"
        },
        {
          "internalType": "address",
          "name": "to",
          "type": "address"
        },
        {
          "internalType": "uint256",
          "name": "tokenId",
          "type": "uint256"
        }
      ],
      "name": "safeTransferFrom",
      "outputs": [],
      "stateMutability": "nonpayable",
      "type": "function"
    },
    {
      "inputs": [
        {
          "internalType": "address",
          "name": "from",
          "type": "address"
        },
        {
          "internalType": "address",
          "name": "to",
          "type": "address"
        },
        {
          "internalType": "uint256",
          "name": "tokenId",
          "type": "uint256"
        },
        {
          "internalType": "bytes",
          "name": "_data",
          "type": "bytes"
        }
      ],
      "name": "safeTransferFrom",
      "outputs": [],
      "stateMutability": "nonpayable",
      "type": "function"
    },
    {
      "inputs": [],
      "name": "saleInfo",
      "outputs": [
        {
          "internalType": "bool",
          "name": "isPublic",
          "type": "bool"
        },
        {
          "internalType": "uint120",
          "name": "price",
          "type": "uint120"
        },
        {
          "internalType": "uint64",
          "name": "stageId",
          "type": "uint64"
        }
      ],
      "stateMutability": "view",
      "type": "function"
    },
    {
      "inputs": [
        {
          "internalType": "address",
          "name": "operator",
          "type": "address"
        },
        {
          "internalType": "bool",
          "name": "approved",
          "type": "bool"
        }
      ],
      "name": "setApprovalForAll",
      "outputs": [],
      "stateMutability": "nonpayable",
      "type": "function"
    },
    {
      "inputs": [
        {
          "internalType": "string",
          "name": "newBaseURI",
          "type": "string"
        }
      ],
      "name": "setBaseURI",
      "outputs": [],
      "stateMutability": "nonpayable",
      "type": "function"
    },
    {
      "inputs": [
        {
          "internalType": "address",
          "name": "itemContractAddress",
          "type": "address"
        },
        {
          "internalType": "uint256",
          "name": "additionalSupply",
          "type": "uint256"
        }
      ],
      "name": "setItemSupply",
      "outputs": [],
      "stateMutability": "nonpayable",
      "type": "function"
    },
    {
      "inputs": [
        {
          "internalType": "uint120",
          "name": "newPrice",
          "type": "uint120"
        }
      ],
      "name": "setPrice",
      "outputs": [],
      "stateMutability": "nonpayable",
      "type": "function"
    },
    {
      "inputs": [
        {
          "internalType": "bytes4",
          "name": "interfaceId",
          "type": "bytes4"
        }
      ],
      "name": "supportsInterface",
      "outputs": [
        {
          "internalType": "bool",
          "name": "",
          "type": "bool"
        }
      ],
      "stateMutability": "view",
      "type": "function"
    },
    {
      "inputs": [],
      "name": "symbol",
      "outputs": [
        {
          "internalType": "string",
          "name": "",
          "type": "string"
        }
      ],
      "stateMutability": "view",
      "type": "function"
    },
    {
      "inputs": [
        {
          "internalType": "uint256",
          "name": "tokenId",
          "type": "uint256"
        }
      ],
      "name": "tokenURI",
      "outputs": [
        {
          "internalType": "string",
          "name": "",
          "type": "string"
        }
      ],
      "stateMutability": "view",
      "type": "function"
    },
    {
      "inputs": [],
      "name": "totalSupply",
      "outputs": [
        {
          "internalType": "uint256",
          "name": "",
          "type": "uint256"
        }
      ],
      "stateMutability": "view",
      "type": "function"
    },
    {
      "inputs": [
        {
          "internalType": "address",
          "name": "from",
          "type": "address"
        },
        {
          "internalType": "address",
          "name": "to",
          "type": "address"
        },
        {
          "internalType": "uint256",
          "name": "tokenId",
          "type": "uint256"
        }
      ],
      "name": "transferFrom",
      "outputs": [],
      "stateMutability": "nonpayable",
      "type": "function"
    },
    {
      "inputs": [
        {
          "internalType": "address",
          "name": "newOwner",
          "type": "address"
        }
      ],
      "name": "transferOwnership",
      "outputs": [],
      "stateMutability": "nonpayable",
      "type": "function"
    },
    {
      "inputs": [
        {
          "internalType": "address",
          "name": "",
          "type": "address"
        }
      ],
      "name": "whitelistAlreadyMinted",
      "outputs": [
        {
          "internalType": "uint8",
          "name": "",
          "type": "uint8"
        }
      ],
      "stateMutability": "view",
      "type": "function"
    },
    {
      "inputs": [
        {
          "internalType": "bytes",
          "name": "signature",
          "type": "bytes"
        },
        {
          "internalType": "uint8",
          "name": "amount",
          "type": "uint8"
        }
      ],
      "name": "whitelistMint",
      "outputs": [],
      "stateMutability": "payable",
      "type": "function"
    }
  ],
  "transactionHash": "0x522ed5227f68822ef46c546fcab0d2511ae7312592c392c6f6cf46fe26a7a3b8",
  "args": [
    "ipfs://QmafcRHT1EwasBR7KteNTmctGGv4mkNAyVfWEwYAfT9XAg",
    "ipfs://QmazDA25V9CyL55vuPJqqAH7dMe5TtAWjH2KdzXKHminH5/",
    "0xe504E243f34651251a1AcB1A511819EF9E9562B5",
    "100000000000000000"
  ],
  "numDeployments": 1,
  "solcInputHash": "254e27006662d10bc6f715d4049900c0",
  "bytecode": "0x6101406040523480156200001257600080fd5b5060405162002969380380620029698339810160408190526200003591620003cc565b604051806040016040528060058152602001644d2d44414f60d81b815250604051806040016040528060018152602001603160f81b8152506040518060400160405280600a8152602001694d61737465727344414f60b01b815250604051806040016040528060058152602001644d2d44414f60d81b8152508160029080519060200190620000c692919062000273565b508051620000dc90600390602084019062000273565b50506000805550815160208084019190912082518383012060e08290526101008190524660a0818152604080517f8b73c3c69bb8fe3d512ecc4cf759cc79239f7b179b0ffacaa9a75d522b39400f81880181905281830187905260608201869052608082019490945230818401528151808203909301835260c00190528051940193909320919290916080523060601b60c05261012052506200018b9250620001859150503390565b62000221565b6008805460ff60a01b191690558351620001ad90600990602087019062000273565b508251620001c390600a90602086019062000273565b50600b80546001600160a01b0319166001600160a01b039390931692909217909155600e80546001600160c01b0319166101006001600160781b0390931692909202600160801b600160c01b03191691909117905550620004c69050565b600880546001600160a01b038381166001600160a01b0319831681179093556040519116919082907f8be0079c531659141344cd1fd0a4f28419497f9722a3daafe3b4186f6b6457e090600090a35050565b828054620002819062000473565b90600052602060002090601f016020900481019282620002a55760008555620002f0565b82601f10620002c057805160ff1916838001178555620002f0565b82800160010185558215620002f0579182015b82811115620002f0578251825591602001919060010190620002d3565b50620002fe92915062000302565b5090565b5b80821115620002fe576000815560010162000303565b600082601f8301126200032a578081fd5b81516001600160401b0380821115620003475762000347620004b0565b604051601f8301601f19908116603f01168101908282118183101715620003725762000372620004b0565b816040528381526020925086838588010111156200038e578485fd5b8491505b83821015620003b1578582018301518183018401529082019062000392565b83821115620003c257848385830101525b9695505050505050565b60008060008060808587031215620003e2578384fd5b84516001600160401b0380821115620003f9578586fd5b620004078883890162000319565b955060208701519150808211156200041d578485fd5b506200042c8782880162000319565b604087015190945090506001600160a01b03811681146200044b578283fd5b60608601519092506001600160781b038116811462000468578182fd5b939692955090935050565b600181811c908216806200048857607f821691505b60208210811415620004aa57634e487b7160e01b600052602260045260246000fd5b50919050565b634e487b7160e01b600052604160045260246000fd5b60805160a05160c05160601c60e0516101005161012051612450620005196000396000611996015260006119e5015260006119c001526000611919015260006119430152600061196d01526124506000f3fe6080604052600436106101d85760003560e01c80636ecd23061161010257806395d89b4111610095578063e8a3d48511610064578063e8a3d485146105b6578063e985e9c5146105cb578063ec8d130b14610614578063f2fde38b1461063457600080fd5b806395d89b4114610541578063a22cb46514610556578063b88d4fde14610576578063c87b56dd1461059657600080fd5b80637b47367a116100d15780637b47367a1461048357806388084605146104a35780638da5cb5b146104b85780638e3695b8146104d657600080fd5b80636ecd23061461041b57806370a082311461042e57806370a476191461044e578063715018a61461046e57600080fd5b8063298e30261161017a57806355f804b31161014957806355f804b31461037a5780635c975abb1461039a5780635d478877146103b95780636352211e146103fb57600080fd5b8063298e3026146102f15780632fad121a1461031e57806332cb6b0c1461033157806342842e0e1461035a57600080fd5b8063095ea7b3116101b6578063095ea7b31461026c57806318160ddd1461028e5780631e5551dc146102b157806323b872dd146102d157600080fd5b806301ffc9a7146101dd57806306fdde0314610212578063081812fc14610234575b600080fd5b3480156101e957600080fd5b506101fd6101f83660046120c0565b610654565b60405190151581526020015b60405180910390f35b34801561021e57600080fd5b506102276106a6565b604051610209919061227b565b34801561024057600080fd5b5061025461024f3660046121b1565b610738565b6040516001600160a01b039091168152602001610209565b34801561027857600080fd5b5061028c610287366004612097565b61077c565b005b34801561029a57600080fd5b50600154600054035b604051908152602001610209565b3480156102bd57600080fd5b5061028c6102cc366004612097565b61084f565b3480156102dd57600080fd5b5061028c6102ec366004611f1c565b61089e565b3480156102fd57600080fd5b506102a361030c366004611ed0565b600d6020526000908152604090205481565b61028c61032c3660046120f8565b6108ae565b34801561033d57600080fd5b5061034761271081565b60405161ffff9091168152602001610209565b34801561036657600080fd5b5061028c610375366004611f1c565b610a8f565b34801561038657600080fd5b5061028c61039536600461214a565b610aaa565b3480156103a657600080fd5b50600854600160a01b900460ff166101fd565b3480156103c557600080fd5b506103e96103d4366004611ed0565b600c6020526000908152604090205460ff1681565b60405160ff9091168152602001610209565b34801561040757600080fd5b506102546104163660046121b1565b610ae0565b61028c6104293660046121c9565b610aeb565b34801561043a57600080fd5b506102a3610449366004611ed0565b610c42565b34801561045a57600080fd5b5061028c61046936600461218a565b610c91565b34801561047a57600080fd5b5061028c610ceb565b34801561048f57600080fd5b5061028c61049e3660046121c9565b610d21565b3480156104af57600080fd5b5061028c610d63565b3480156104c457600080fd5b506008546001600160a01b0316610254565b3480156104e257600080fd5b50600e546105129060ff81169061010081046001600160781b031690600160801b900467ffffffffffffffff1683565b6040805193151584526001600160781b03909216602084015267ffffffffffffffff1690820152606001610209565b34801561054d57600080fd5b50610227610da1565b34801561056257600080fd5b5061028c61057136600461202c565b610db0565b34801561058257600080fd5b5061028c610591366004611f57565b610e46565b3480156105a257600080fd5b506102276105b13660046121b1565b610e8a565b3480156105c257600080fd5b50610227610f0f565b3480156105d757600080fd5b506101fd6105e6366004611eea565b6001600160a01b03918216600090815260076020908152604080832093909416825291909152205460ff1690565b34801561062057600080fd5b5061028c61062f366004612066565b610f9d565b34801561064057600080fd5b5061028c61064f366004611ed0565b611016565b60006301ffc9a760e01b6001600160e01b03198316148061068557506380ac58cd60e01b6001600160e01b03198316145b806106a05750635b5e139f60e01b6001600160e01b03198316145b92915050565b6060600280546106b59061239d565b80601f01602080910402602001604051908101604052809291908181526020018280546106e19061239d565b801561072e5780601f106107035761010080835404028352916020019161072e565b820191906000526020600020905b81548152906001019060200180831161071157829003601f168201915b5050505050905090565b6000610743826110ae565b610760576040516333d1c03960e21b815260040160405180910390fd5b506000908152600660205260409020546001600160a01b031690565b6000610787826110d5565b9050806001600160a01b0316836001600160a01b031614156107bc5760405163250fdee360e21b815260040160405180910390fd5b336001600160a01b038216146107f3576107d681336105e6565b6107f3576040516367d9dca160e11b815260040160405180910390fd5b60008281526006602052604080822080546001600160a01b0319166001600160a01b0387811691821790925591518593918516917f8c5be1e5ebec7d5bd14f71427d1e84f3dd0314c0f7b2291e5b200ac8c7c3b92591a4505050565b6008546001600160a01b031633146108825760405162461bcd60e51b8152600401610879906122b9565b60405180910390fd5b6001600160a01b039091166000908152600d6020526040902055565b6108a9838383611136565b505050565b600e54339060ff16156108fb5760405162461bcd60e51b81526020600482015260156024820152746e6f7420696e2077686974656c6973742073616c6560581b6044820152606401610879565b61090584846112e6565b61271060ff83166109196001546000540390565b61092391906122ee565b11156109415760405162461bcd60e51b81526004016108799061228e565b6001600160a01b0381166000908152600c6020526040902054600a9061096b90849060ff16612306565b60ff1611156109b55760405162461bcd60e51b81526020600482015260166024820152756578636565642077686974656c6973742071756f746160501b6044820152606401610879565b6001600160a01b0381166000908152600c6020526040812080548492906109e090849060ff16612306565b92506101000a81548160ff021916908360ff16021790555034600e60000160019054906101000a90046001600160781b03168360ff16610a20919061232b565b6001600160781b031614610a665760405162461bcd60e51b815260206004820152600d60248201526c3830bcb6b2b73a1032b93937b960991b6044820152606401610879565b610a73818360ff166113f0565b600b54610a89906001600160a01b03163461140a565b50505050565b6108a983838360405180602001604052806000815250610e46565b6008546001600160a01b03163314610ad45760405162461bcd60e51b8152600401610879906122b9565b6108a9600a8383611dca565b60006106a0826110d5565b600e5460ff16610b325760405162461bcd60e51b81526020600482015260126024820152716e6f7420696e207075626c69632073616c6560701b6044820152606401610879565b61271060ff8216610b466001546000540390565b610b5091906122ee565b1115610b6e5760405162461bcd60e51b81526004016108799061228e565b600e543490610b8e9061010090046001600160781b031660ff841661232b565b6001600160781b031614610bd45760405162461bcd60e51b815260206004820152600d60248201526c3830bcb6b2b73a1032b93937b960991b6044820152606401610879565b600560ff82161115610c1c5760405162461bcd60e51b81526020600482015260116024820152706578636565642062617463682073697a6560781b6044820152606401610879565b610c29338260ff166113f0565b600b54610c3f906001600160a01b03163461140a565b50565b60006001600160a01b038216610c6b576040516323d3ad8160e21b815260040160405180910390fd5b506001600160a01b031660009081526005602052604090205467ffffffffffffffff1690565b6008546001600160a01b03163314610cbb5760405162461bcd60e51b8152600401610879906122b9565b600e80546001600160781b03909216610100026fffffffffffffffffffffffffffffff0019909216919091179055565b6008546001600160a01b03163314610d155760405162461bcd60e51b8152600401610879906122b9565b610d1f6000611523565b565b33610d2f8160ff84166113f0565b6001600160a01b0381166000908152600d60205260408120805460ff85169290610d5a90849061235a565b90915550505050565b6008546001600160a01b03163314610d8d5760405162461bcd60e51b8152600401610879906122b9565b600e805460ff19811660ff90911615179055565b6060600380546106b59061239d565b6001600160a01b038216331415610dda5760405163b06307db60e01b815260040160405180910390fd5b3360008181526007602090815260408083206001600160a01b03871680855290835292819020805460ff191686151590811790915590519081529192917f17307eab39ab6107e8899845ad3d59bd9653f200f220920489ca2b5937696c31910160405180910390a35050565b610e51848484611136565b6001600160a01b0383163b15610a8957610e6d84848484611575565b610a89576040516368d2bf6b60e11b815260040160405180910390fd5b6060610e95826110ae565b610eb257604051630a14c4b560e41b815260040160405180910390fd5b6000610ebc61166c565b9050805160001415610edd5760405180602001604052806000815250610f08565b80610ee78461167b565b604051602001610ef892919061220f565b6040516020818303038152906040525b9392505050565b60098054610f1c9061239d565b80601f0160208091040260200160405190810160405280929190818152602001828054610f489061239d565b8015610f955780601f10610f6a57610100808354040283529160200191610f95565b820191906000526020600020905b815481529060010190602001808311610f7857829003601f168201915b505050505081565b6008546001600160a01b03163314610fc75760405162461bcd60e51b8152600401610879906122b9565b61271061ffff8216610fdc6001546000540390565b610fe691906122ee565b11156110045760405162461bcd60e51b81526004016108799061228e565b611012828261ffff166113f0565b5050565b6008546001600160a01b031633146110405760405162461bcd60e51b8152600401610879906122b9565b6001600160a01b0381166110a55760405162461bcd60e51b815260206004820152602660248201527f4f776e61626c653a206e6577206f776e657220697320746865207a65726f206160448201526564647265737360d01b6064820152608401610879565b610c3f81611523565b60008054821080156106a0575050600090815260046020526040902054600160e01b161590565b60008160005481101561111d57600081815260046020526040902054600160e01b811661111b575b80610f085750600019016000818152600460205260409020546110fd565b505b604051636f96cda160e11b815260040160405180910390fd5b6000611141826110d5565b9050836001600160a01b0316816001600160a01b0316146111745760405162a1148160e81b815260040160405180910390fd5b6000336001600160a01b0386161480611192575061119285336105e6565b806111ad5750336111a284610738565b6001600160a01b0316145b9050806111cd57604051632ce44b5f60e11b815260040160405180910390fd5b6001600160a01b0384166111f457604051633a954ecd60e21b815260040160405180910390fd5b61120185858560016116ca565b600083815260066020908152604080832080546001600160a01b03191690556001600160a01b038881168452600583528184208054600019019055871683528083208054600101905585835260049091529020600160e11b4260a01b86178117909155821661129e576001830160008181526004602052604090205461129c57600054811461129c5760008181526004602052604090208390555b505b82846001600160a01b0316866001600160a01b03167fddf252ad1be2c89b69c2b068fc378daa952ba7f163c4a11628f55a4df523b3ef60405160405180910390a45050505050565b604080517fdabea70844bf24d9249fbcd43ff305a229af24da603ae5c43f957f44dcbd0bed6020820152339181019190915260009061133d906060016040516020818303038152906040528051906020012061171c565b905061137f8184848080601f01602080910402602001604051908101604052809392919081815260200183838082843760009201919091525061176a92505050565b6001600160a01b031661139a6008546001600160a01b031690565b6001600160a01b0316146108a95760405162461bcd60e51b815260206004820152601760248201527f696e76616c6964206f7220756e617574686f72697a65640000000000000000006044820152606401610879565b61101282826040518060200160405280600081525061178e565b8047101561145a5760405162461bcd60e51b815260206004820152601d60248201527f416464726573733a20696e73756666696369656e742062616c616e63650000006044820152606401610879565b6000826001600160a01b03168260405160006040518083038185875af1925050503d80600081146114a7576040519150601f19603f3d011682016040523d82523d6000602084013e6114ac565b606091505b50509050806108a95760405162461bcd60e51b815260206004820152603a60248201527f416464726573733a20756e61626c6520746f2073656e642076616c75652c207260448201527f6563697069656e74206d617920686176652072657665727465640000000000006064820152608401610879565b600880546001600160a01b038381166001600160a01b0319831681179093556040519116919082907f8be0079c531659141344cd1fd0a4f28419497f9722a3daafe3b4186f6b6457e090600090a35050565b604051630a85bd0160e11b81526000906001600160a01b0385169063150b7a02906115aa90339089908890889060040161223e565b602060405180830381600087803b1580156115c457600080fd5b505af19250505080156115f4575060408051601f3d908101601f191682019092526115f1918101906120dc565b60015b61164f573d808015611622576040519150601f19603f3d011682016040523d82523d6000602084013e611627565b606091505b508051611647576040516368d2bf6b60e11b815260040160405180910390fd5b805181602001fd5b6001600160e01b031916630a85bd0160e11b149050949350505050565b6060600a80546106b59061239d565b604080516080810191829052607f0190826030600a8206018353600a90045b80156116b857600183039250600a81066030018353600a900461169a565b50819003601f19909101908152919050565b600854600160a01b900460ff16156117175760405162461bcd60e51b815260206004820152601060248201526f14185d5cd8589b194e881c185d5cd95960821b6044820152606401610879565b610a89565b60006106a061172961190c565b8360405161190160f01b6020820152602281018390526042810182905260009060620160405160208183030381529060405280519060200120905092915050565b60008060006117798585611a33565b9150915061178681611aa3565b509392505050565b6000546001600160a01b0384166117b757604051622e076360e81b815260040160405180910390fd5b826117d55760405163b562e8dd60e01b815260040160405180910390fd5b6117e260008583866116ca565b6001600160a01b03841660008181526005602090815260408083208054680100000000000000018902019055848352600490915290204260a01b86176001861460e11b1790558190818501903b156118b7575b60405182906001600160a01b038816906000907fddf252ad1be2c89b69c2b068fc378daa952ba7f163c4a11628f55a4df523b3ef908290a46118806000878480600101955087611575565b61189d576040516368d2bf6b60e11b815260040160405180910390fd5b8082106118355782600054146118b257600080fd5b6118fc565b5b6040516001830192906001600160a01b038816906000907fddf252ad1be2c89b69c2b068fc378daa952ba7f163c4a11628f55a4df523b3ef908290a48082106118b8575b506000908155610a899085838684565b6000306001600160a01b037f00000000000000000000000000000000000000000000000000000000000000001614801561196557507f000000000000000000000000000000000000000000000000000000000000000046145b1561198f57507f000000000000000000000000000000000000000000000000000000000000000090565b50604080517f00000000000000000000000000000000000000000000000000000000000000006020808301919091527f0000000000000000000000000000000000000000000000000000000000000000828401527f000000000000000000000000000000000000000000000000000000000000000060608301524660808301523060a0808401919091528351808403909101815260c0909201909252805191012090565b600080825160411415611a6a5760208301516040840151606085015160001a611a5e87828585611ca4565b94509450505050611a9c565b825160401415611a945760208301516040840151611a89868383611d91565b935093505050611a9c565b506000905060025b9250929050565b6000816004811115611ac557634e487b7160e01b600052602160045260246000fd5b1415611ace5750565b6001816004811115611af057634e487b7160e01b600052602160045260246000fd5b1415611b3e5760405162461bcd60e51b815260206004820152601860248201527f45434453413a20696e76616c6964207369676e617475726500000000000000006044820152606401610879565b6002816004811115611b6057634e487b7160e01b600052602160045260246000fd5b1415611bae5760405162461bcd60e51b815260206004820152601f60248201527f45434453413a20696e76616c6964207369676e6174757265206c656e677468006044820152606401610879565b6003816004811115611bd057634e487b7160e01b600052602160045260246000fd5b1415611c295760405162461bcd60e51b815260206004820152602260248201527f45434453413a20696e76616c6964207369676e6174757265202773272076616c604482015261756560f01b6064820152608401610879565b6004816004811115611c4b57634e487b7160e01b600052602160045260246000fd5b1415610c3f5760405162461bcd60e51b815260206004820152602260248201527f45434453413a20696e76616c6964207369676e6174757265202776272076616c604482015261756560f01b6064820152608401610879565b6000807f7fffffffffffffffffffffffffffffff5d576e7357a4501ddfe92f46681b20a0831115611cdb5750600090506003611d88565b8460ff16601b14158015611cf357508460ff16601c14155b15611d045750600090506004611d88565b6040805160008082526020820180845289905260ff881692820192909252606081018690526080810185905260019060a0016020604051602081039080840390855afa158015611d58573d6000803e3d6000fd5b5050604051601f1901519150506001600160a01b038116611d8157600060019250925050611d88565b9150600090505b94509492505050565b6000806001600160ff1b03831681611dae60ff86901c601b6122ee565b9050611dbc87828885611ca4565b935093505050935093915050565b828054611dd69061239d565b90600052602060002090601f016020900481019282611df85760008555611e3e565b82601f10611e115782800160ff19823516178555611e3e565b82800160010185558215611e3e579182015b82811115611e3e578235825591602001919060010190611e23565b50611e4a929150611e4e565b5090565b5b80821115611e4a5760008155600101611e4f565b80356001600160a01b0381168114611e7a57600080fd5b919050565b60008083601f840112611e90578182fd5b50813567ffffffffffffffff811115611ea7578182fd5b602083019150836020828501011115611a9c57600080fd5b803560ff81168114611e7a57600080fd5b600060208284031215611ee1578081fd5b610f0882611e63565b60008060408385031215611efc578081fd5b611f0583611e63565b9150611f1360208401611e63565b90509250929050565b600080600060608486031215611f30578081fd5b611f3984611e63565b9250611f4760208501611e63565b9150604084013590509250925092565b60008060008060808587031215611f6c578081fd5b611f7585611e63565b9350611f8360208601611e63565b925060408501359150606085013567ffffffffffffffff80821115611fa6578283fd5b818701915087601f830112611fb9578283fd5b813581811115611fcb57611fcb6123ee565b604051601f8201601f19908116603f01168101908382118183101715611ff357611ff36123ee565b816040528281528a602084870101111561200b578586fd5b82602086016020830137918201602001949094529598949750929550505050565b6000806040838503121561203e578182fd5b61204783611e63565b91506020830135801515811461205b578182fd5b809150509250929050565b60008060408385031215612078578182fd5b61208183611e63565b9150602083013561ffff8116811461205b578182fd5b600080604083850312156120a9578182fd5b6120b283611e63565b946020939093013593505050565b6000602082840312156120d1578081fd5b8135610f0881612404565b6000602082840312156120ed578081fd5b8151610f0881612404565b60008060006040848603121561210c578283fd5b833567ffffffffffffffff811115612122578384fd5b61212e86828701611e7f565b9094509250612141905060208501611ebf565b90509250925092565b6000806020838503121561215c578182fd5b823567ffffffffffffffff811115612172578283fd5b61217e85828601611e7f565b90969095509350505050565b60006020828403121561219b578081fd5b81356001600160781b0381168114610f08578182fd5b6000602082840312156121c2578081fd5b5035919050565b6000602082840312156121da578081fd5b610f0882611ebf565b600081518084526121fb816020860160208601612371565b601f01601f19169290920160200192915050565b60008351612221818460208801612371565b835190830190612235818360208801612371565b01949350505050565b6001600160a01b0385811682528416602082015260408101839052608060608201819052600090612271908301846121e3565b9695505050505050565b602081526000610f0860208301846121e3565b602080825260119082015270657863656564206d617820737570706c7960781b604082015260600190565b6020808252818101527f4f776e61626c653a2063616c6c6572206973206e6f7420746865206f776e6572604082015260600190565b60008219821115612301576123016123d8565b500190565b600060ff821660ff84168060ff03821115612323576123236123d8565b019392505050565b60006001600160781b0380831681851681830481118215151615612351576123516123d8565b02949350505050565b60008282101561236c5761236c6123d8565b500390565b60005b8381101561238c578181015183820152602001612374565b83811115610a895750506000910152565b600181811c908216806123b157607f821691505b602082108114156123d257634e487b7160e01b600052602260045260246000fd5b50919050565b634e487b7160e01b600052601160045260246000fd5b634e487b7160e01b600052604160045260246000fd5b6001600160e01b031981168114610c3f57600080fdfea26469706673582212201e6b2ad67dd8bf744f29fac7b084d6f6f33b56fb8f59cc9bbab79e460d18bef664736f6c63430008040033",
  "devdoc": {
    "author": "BaaSid",
    "kind": "dev",
    "methods": {
      "airdrop(address,uint16)": {
        "details": "Airdrop"
      },
      "approve(address,uint256)": {
        "details": "See {IERC721-approve}."
      },
      "balanceOf(address)": {
        "details": "See {IERC721-balanceOf}."
      },
      "constructor": {
        "details": "Setup contractURI, initial base URI, ERC721"
      },
      "flipPublicSale()": {
        "details": "Flip public sale state"
      },
      "getApproved(uint256)": {
        "details": "See {IERC721-getApproved}."
      },
      "isApprovedForAll(address,address)": {
        "details": "See {IERC721-isApprovedForAll}."
      },
      "name()": {
        "details": "See {IERC721Metadata-name}."
      },
      "owner()": {
        "details": "Returns the address of the current owner."
      },
      "ownerOf(uint256)": {
        "details": "See {IERC721-ownerOf}."
      },
      "paused()": {
        "details": "Returns true if the contract is paused, and false otherwise."
      },
      "renounceOwnership()": {
        "details": "Leaves the contract without owner. It will not be possible to call `onlyOwner` functions anymore. Can only be called by the current owner. NOTE: Renouncing ownership will leave the contract without an owner, thereby removing any functionality that is only available to the owner."
      },
      "safeTransferFrom(address,address,uint256)": {
        "details": "See {IERC721-safeTransferFrom}."
      },
      "safeTransferFrom(address,address,uint256,bytes)": {
        "details": "See {IERC721-safeTransferFrom}."
      },
      "setApprovalForAll(address,bool)": {
        "details": "See {IERC721-setApprovalForAll}."
      },
      "setBaseURI(string)": {
        "details": "Change base URI to reveal NFT"
      },
      "setItemSupply(address,uint256)": {
        "details": "Set additional supply for certain item NFT contract"
      },
      "setPrice(uint120)": {
        "details": "Set new price"
      },
      "supportsInterface(bytes4)": {
        "details": "See {IERC165-supportsInterface}."
      },
      "symbol()": {
        "details": "See {IERC721Metadata-symbol}."
      },
      "tokenURI(uint256)": {
        "details": "See {IERC721Metadata-tokenURI}."
      },
      "totalSupply()": {
        "details": "Returns the total number of tokens in existence. Burned tokens will reduce the count.  To get the total number of tokens minted, please see `_totalMinted`."
      },
      "transferFrom(address,address,uint256)": {
        "details": "See {IERC721-transferFrom}."
      },
      "transferOwnership(address)": {
        "details": "Transfers ownership of the contract to a new account (`newOwner`). Can only be called by the current owner."
      }
    },
    "title": "Masters DAO",
    "version": 1
  },
  "userdoc": {
    "errors": {
      "ApprovalCallerNotOwnerNorApproved()": [
        {
          "notice": "The caller must own the token or be an approved operator."
        }
      ],
      "ApprovalQueryForNonexistentToken()": [
        {
          "notice": "The token does not exist."
        }
      ],
      "ApprovalToCurrentOwner()": [
        {
          "notice": "The caller cannot approve to the current owner."
        }
      ],
      "ApproveToCaller()": [
        {
          "notice": "The caller cannot approve to their own address."
        }
      ],
      "BalanceQueryForZeroAddress()": [
        {
          "notice": "Cannot query the balance for the zero address."
        }
      ],
      "MintToZeroAddress()": [
        {
          "notice": "Cannot mint to the zero address."
        }
      ],
      "MintZeroQuantity()": [
        {
          "notice": "The quantity of tokens minted must be more than zero."
        }
      ],
      "OwnerQueryForNonexistentToken()": [
        {
          "notice": "The token does not exist."
        }
      ],
      "TransferCallerNotOwnerNorApproved()": [
        {
          "notice": "The caller must own the token or be an approved operator."
        }
      ],
      "TransferFromIncorrectOwner()": [
        {
          "notice": "The token must be owned by `from`."
        }
      ],
      "TransferToNonERC721ReceiverImplementer()": [
        {
          "notice": "Cannot safely transfer to a contract that does not implement the ERC721Receiver interface."
        }
      ],
      "TransferToZeroAddress()": [
        {
          "notice": "Cannot transfer to the zero address."
        }
      ],
      "URIQueryForNonexistentToken()": [
        {
          "notice": "The token does not exist."
        }
      ]
    },
    "kind": "user",
    "methods": {
      "mint(uint8)": {
        "notice": "Mint certain amount of tokens"
      },
      "whitelistMint(bytes,uint8)": {
        "notice": "Mint for whitelist (EIP712)"
      }
    },
    "notice": "DAO for art and antique",
    "version": 1
  },
  "storageLayout": {
    "storage": [
      {
        "astId": 2577,
        "contract": "contracts/MastersDAO.sol:MastersDAO",
        "label": "_currentIndex",
        "offset": 0,
        "slot": "0",
        "type": "t_uint256"
      },
      {
        "astId": 2579,
        "contract": "contracts/MastersDAO.sol:MastersDAO",
        "label": "_burnCounter",
        "offset": 0,
        "slot": "1",
        "type": "t_uint256"
      },
      {
        "astId": 2581,
        "contract": "contracts/MastersDAO.sol:MastersDAO",
        "label": "_name",
        "offset": 0,
        "slot": "2",
        "type": "t_string_storage"
      },
      {
        "astId": 2583,
        "contract": "contracts/MastersDAO.sol:MastersDAO",
        "label": "_symbol",
        "offset": 0,
        "slot": "3",
        "type": "t_string_storage"
      },
      {
        "astId": 2587,
        "contract": "contracts/MastersDAO.sol:MastersDAO",
        "label": "_packedOwnerships",
        "offset": 0,
        "slot": "4",
        "type": "t_mapping(t_uint256,t_uint256)"
      },
      {
        "astId": 2591,
        "contract": "contracts/MastersDAO.sol:MastersDAO",
        "label": "_packedAddressData",
        "offset": 0,
        "slot": "5",
        "type": "t_mapping(t_address,t_uint256)"
      },
      {
        "astId": 2595,
        "contract": "contracts/MastersDAO.sol:MastersDAO",
        "label": "_tokenApprovals",
        "offset": 0,
        "slot": "6",
        "type": "t_mapping(t_uint256,t_address)"
      },
      {
        "astId": 2601,
        "contract": "contracts/MastersDAO.sol:MastersDAO",
        "label": "_operatorApprovals",
        "offset": 0,
        "slot": "7",
        "type": "t_mapping(t_address,t_mapping(t_address,t_bool))"
      },
      {
        "astId": 7,
        "contract": "contracts/MastersDAO.sol:MastersDAO",
        "label": "_owner",
        "offset": 0,
        "slot": "8",
        "type": "t_address"
      },
      {
        "astId": 563,
        "contract": "contracts/MastersDAO.sol:MastersDAO",
        "label": "_paused",
        "offset": 20,
        "slot": "8",
        "type": "t_bool"
      },
      {
        "astId": 2107,
        "contract": "contracts/MastersDAO.sol:MastersDAO",
        "label": "contractURI",
        "offset": 0,
        "slot": "9",
        "type": "t_string_storage"
      },
      {
        "astId": 2109,
        "contract": "contracts/MastersDAO.sol:MastersDAO",
        "label": "__baseURI",
        "offset": 0,
        "slot": "10",
        "type": "t_string_storage"
      },
      {
        "astId": 2111,
        "contract": "contracts/MastersDAO.sol:MastersDAO",
        "label": "_fundReceiver",
        "offset": 0,
        "slot": "11",
        "type": "t_address_payable"
      },
      {
        "astId": 2115,
        "contract": "contracts/MastersDAO.sol:MastersDAO",
        "label": "whitelistAlreadyMinted",
        "offset": 0,
        "slot": "12",
        "type": "t_mapping(t_address,t_uint8)"
      },
      {
        "astId": 2119,
        "contract": "contracts/MastersDAO.sol:MastersDAO",
        "label": "itemRemains",
        "offset": 0,
        "slot": "13",
        "type": "t_mapping(t_address,t_uint256)"
      },
      {
        "astId": 2129,
        "contract": "contracts/MastersDAO.sol:MastersDAO",
        "label": "saleInfo",
        "offset": 0,
        "slot": "14",
        "type": "t_struct(SaleInfo)2126_storage"
      }
    ],
    "types": {
      "t_address": {
        "encoding": "inplace",
        "label": "address",
        "numberOfBytes": "20"
      },
      "t_address_payable": {
        "encoding": "inplace",
        "label": "address payable",
        "numberOfBytes": "20"
      },
      "t_bool": {
        "encoding": "inplace",
        "label": "bool",
        "numberOfBytes": "1"
      },
      "t_mapping(t_address,t_bool)": {
        "encoding": "mapping",
        "key": "t_address",
        "label": "mapping(address => bool)",
        "numberOfBytes": "32",
        "value": "t_bool"
      },
      "t_mapping(t_address,t_mapping(t_address,t_bool))": {
        "encoding": "mapping",
        "key": "t_address",
        "label": "mapping(address => mapping(address => bool))",
        "numberOfBytes": "32",
        "value": "t_mapping(t_address,t_bool)"
      },
      "t_mapping(t_address,t_uint256)": {
        "encoding": "mapping",
        "key": "t_address",
        "label": "mapping(address => uint256)",
        "numberOfBytes": "32",
        "value": "t_uint256"
      },
      "t_mapping(t_address,t_uint8)": {
        "encoding": "mapping",
        "key": "t_address",
        "label": "mapping(address => uint8)",
        "numberOfBytes": "32",
        "value": "t_uint8"
      },
      "t_mapping(t_uint256,t_address)": {
        "encoding": "mapping",
        "key": "t_uint256",
        "label": "mapping(uint256 => address)",
        "numberOfBytes": "32",
        "value": "t_address"
      },
      "t_mapping(t_uint256,t_uint256)": {
        "encoding": "mapping",
        "key": "t_uint256",
        "label": "mapping(uint256 => uint256)",
        "numberOfBytes": "32",
        "value": "t_uint256"
      },
      "t_string_storage": {
        "encoding": "bytes",
        "label": "string",
        "numberOfBytes": "32"
      },
      "t_struct(SaleInfo)2126_storage": {
        "encoding": "inplace",
        "label": "struct MastersDAO.SaleInfo",
        "members": [
          {
            "astId": 2121,
            "contract": "contracts/MastersDAO.sol:MastersDAO",
            "label": "isPublic",
            "offset": 0,
            "slot": "0",
            "type": "t_bool"
          },
          {
            "astId": 2123,
            "contract": "contracts/MastersDAO.sol:MastersDAO",
            "label": "price",
            "offset": 1,
            "slot": "0",
            "type": "t_uint120"
          },
          {
            "astId": 2125,
            "contract": "contracts/MastersDAO.sol:MastersDAO",
            "label": "stageId",
            "offset": 16,
            "slot": "0",
            "type": "t_uint64"
          }
        ],
        "numberOfBytes": "32"
      },
      "t_uint120": {
        "encoding": "inplace",
        "label": "uint120",
        "numberOfBytes": "15"
      },
      "t_uint256": {
        "encoding": "inplace",
        "label": "uint256",
        "numberOfBytes": "32"
      },
      "t_uint64": {
        "encoding": "inplace",
        "label": "uint64",
        "numberOfBytes": "8"
      },
      "t_uint8": {
        "encoding": "inplace",
        "label": "uint8",
        "numberOfBytes": "1"
      }
    }
  }
}