{
  "address": "0xA916F9514702B04502556c09d4bD76ABAd0AEa90",
  "abi": [
    {
      "inputs": [
        {
          "internalType": "string",
          "name": "initContractURI",
          "type": "string"
        },
        {
          "internalType": "string",
          "name": "initBaseURI",
          "type": "string"
        },
        {
          "internalType": "address payable",
          "name": "receiver",
          "type": "address"
        },
        {
          "internalType": "uint104",
          "name": "publicPrice",
          "type": "uint104"
        },
        {
          "internalType": "uint104",
          "name": "whitelistPrice",
          "type": "uint104"
        }
      ],
      "stateMutability": "nonpayable",
      "type": "constructor"
    },
    {
      "anonymous": false,
      "inputs": [
        {
          "indexed": true,
          "internalType": "address",
          "name": "owner",
          "type": "address"
        },
        {
          "indexed": true,
          "internalType": "address",
          "name": "approved",
          "type": "address"
        },
        {
          "indexed": true,
          "internalType": "uint256",
          "name": "tokenId",
          "type": "uint256"
        }
      ],
      "name": "Approval",
      "type": "event"
    },
    {
      "anonymous": false,
      "inputs": [
        {
          "indexed": true,
          "internalType": "address",
          "name": "owner",
          "type": "address"
        },
        {
          "indexed": true,
          "internalType": "address",
          "name": "operator",
          "type": "address"
        },
        {
          "indexed": false,
          "internalType": "bool",
          "name": "approved",
          "type": "bool"
        }
      ],
      "name": "ApprovalForAll",
      "type": "event"
    },
    {
      "anonymous": false,
      "inputs": [
        {
          "indexed": true,
          "internalType": "address",
          "name": "previousOwner",
          "type": "address"
        },
        {
          "indexed": true,
          "internalType": "address",
          "name": "newOwner",
          "type": "address"
        }
      ],
      "name": "OwnershipTransferred",
      "type": "event"
    },
    {
      "anonymous": false,
      "inputs": [
        {
          "indexed": true,
          "internalType": "address",
          "name": "from",
          "type": "address"
        },
        {
          "indexed": true,
          "internalType": "address",
          "name": "to",
          "type": "address"
        },
        {
          "indexed": true,
          "internalType": "uint256",
          "name": "tokenId",
          "type": "uint256"
        }
      ],
      "name": "Transfer",
      "type": "event"
    },
    {
      "inputs": [],
      "name": "MAX_SUPPLY",
      "outputs": [
        {
          "internalType": "uint16",
          "name": "",
          "type": "uint16"
        }
      ],
      "stateMutability": "view",
      "type": "function"
    },
    {
      "inputs": [],
      "name": "WHITELIST_MAX_SUPPLY",
      "outputs": [
        {
          "internalType": "uint16",
          "name": "",
          "type": "uint16"
        }
      ],
      "stateMutability": "view",
      "type": "function"
    },
    {
      "inputs": [
        {
          "internalType": "address",
          "name": "to",
          "type": "address"
        },
        {
          "internalType": "uint256",
          "name": "tokenId",
          "type": "uint256"
        }
      ],
      "name": "approve",
      "outputs": [],
      "stateMutability": "nonpayable",
      "type": "function"
    },
    {
      "inputs": [
        {
          "internalType": "address",
          "name": "owner",
          "type": "address"
        }
      ],
      "name": "balanceOf",
      "outputs": [
        {
          "internalType": "uint256",
          "name": "",
          "type": "uint256"
        }
      ],
      "stateMutability": "view",
      "type": "function"
    },
    {
      "inputs": [],
      "name": "contractURI",
      "outputs": [
        {
          "internalType": "string",
          "name": "",
          "type": "string"
        }
      ],
      "stateMutability": "view",
      "type": "function"
    },
    {
      "inputs": [],
      "name": "flipPublicSale",
      "outputs": [],
      "stateMutability": "nonpayable",
      "type": "function"
    },
    {
      "inputs": [],
      "name": "flipWhitelistSale",
      "outputs": [],
      "stateMutability": "nonpayable",
      "type": "function"
    },
    {
      "inputs": [
        {
          "internalType": "uint256",
          "name": "tokenId",
          "type": "uint256"
        }
      ],
      "name": "getApproved",
      "outputs": [
        {
          "internalType": "address",
          "name": "",
          "type": "address"
        }
      ],
      "stateMutability": "view",
      "type": "function"
    },
    {
      "inputs": [
        {
          "internalType": "address",
          "name": "owner",
          "type": "address"
        },
        {
          "internalType": "address",
          "name": "operator",
          "type": "address"
        }
      ],
      "name": "isApprovedForAll",
      "outputs": [
        {
          "internalType": "bool",
          "name": "",
          "type": "bool"
        }
      ],
      "stateMutability": "view",
      "type": "function"
    },
    {
      "inputs": [
        {
          "internalType": "uint256",
          "name": "amount",
          "type": "uint256"
        }
      ],
      "name": "mint",
      "outputs": [],
      "stateMutability": "payable",
      "type": "function"
    },
    {
      "inputs": [],
      "name": "name",
      "outputs": [
        {
          "internalType": "string",
          "name": "",
          "type": "string"
        }
      ],
      "stateMutability": "view",
      "type": "function"
    },
    {
      "inputs": [],
      "name": "nextOwnerToExplicitlySet",
      "outputs": [
        {
          "internalType": "uint256",
          "name": "",
          "type": "uint256"
        }
      ],
      "stateMutability": "view",
      "type": "function"
    },
    {
      "inputs": [],
      "name": "owner",
      "outputs": [
        {
          "internalType": "address",
          "name": "",
          "type": "address"
        }
      ],
      "stateMutability": "view",
      "type": "function"
    },
    {
      "inputs": [
        {
          "internalType": "uint256",
          "name": "tokenId",
          "type": "uint256"
        }
      ],
      "name": "ownerOf",
      "outputs": [
        {
          "internalType": "address",
          "name": "",
          "type": "address"
        }
      ],
      "stateMutability": "view",
      "type": "function"
    },
    {
      "inputs": [],
      "name": "renounceOwnership",
      "outputs": [],
      "stateMutability": "nonpayable",
      "type": "function"
    },
    {
      "inputs": [
        {
          "internalType": "address",
          "name": "from",
          "type": "address"
        },
        {
          "internalType": "address",
          "name": "to",
          "type": "address"
        },
        {
          "internalType": "uint256",
          "name": "tokenId",
          "type": "uint256"
        }
      ],
      "name": "safeTransferFrom",
      "outputs": [],
      "stateMutability": "nonpayable",
      "type": "function"
    },
    {
      "inputs": [
        {
          "internalType": "address",
          "name": "from",
          "type": "address"
        },
        {
          "internalType": "address",
          "name": "to",
          "type": "address"
        },
        {
          "internalType": "uint256",
          "name": "tokenId",
          "type": "uint256"
        },
        {
          "internalType": "bytes",
          "name": "_data",
          "type": "bytes"
        }
      ],
      "name": "safeTransferFrom",
      "outputs": [],
      "stateMutability": "nonpayable",
      "type": "function"
    },
    {
      "inputs": [],
      "name": "saleInfo",
      "outputs": [
        {
          "internalType": "bool",
          "name": "isPublic",
          "type": "bool"
        },
        {
          "internalType": "uint104",
          "name": "publicPrice",
          "type": "uint104"
        },
        {
          "internalType": "bool",
          "name": "isWhitelist",
          "type": "bool"
        },
        {
          "internalType": "uint104",
          "name": "whitelistPrice",
          "type": "uint104"
        },
        {
          "internalType": "uint16",
          "name": "whitelistSupply",
          "type": "uint16"
        }
      ],
      "stateMutability": "view",
      "type": "function"
    },
    {
      "inputs": [
        {
          "internalType": "address",
          "name": "operator",
          "type": "address"
        },
        {
          "internalType": "bool",
          "name": "approved",
          "type": "bool"
        }
      ],
      "name": "setApprovalForAll",
      "outputs": [],
      "stateMutability": "nonpayable",
      "type": "function"
    },
    {
      "inputs": [
        {
          "internalType": "string",
          "name": "newBaseURI",
          "type": "string"
        }
      ],
      "name": "setBaseURI",
      "outputs": [],
      "stateMutability": "nonpayable",
      "type": "function"
    },
    {
      "inputs": [
        {
          "internalType": "bytes4",
          "name": "interfaceId",
          "type": "bytes4"
        }
      ],
      "name": "supportsInterface",
      "outputs": [
        {
          "internalType": "bool",
          "name": "",
          "type": "bool"
        }
      ],
      "stateMutability": "view",
      "type": "function"
    },
    {
      "inputs": [],
      "name": "symbol",
      "outputs": [
        {
          "internalType": "string",
          "name": "",
          "type": "string"
        }
      ],
      "stateMutability": "view",
      "type": "function"
    },
    {
      "inputs": [
        {
          "internalType": "uint256",
          "name": "index",
          "type": "uint256"
        }
      ],
      "name": "tokenByIndex",
      "outputs": [
        {
          "internalType": "uint256",
          "name": "",
          "type": "uint256"
        }
      ],
      "stateMutability": "view",
      "type": "function"
    },
    {
      "inputs": [
        {
          "internalType": "address",
          "name": "owner",
          "type": "address"
        },
        {
          "internalType": "uint256",
          "name": "index",
          "type": "uint256"
        }
      ],
      "name": "tokenOfOwnerByIndex",
      "outputs": [
        {
          "internalType": "uint256",
          "name": "",
          "type": "uint256"
        }
      ],
      "stateMutability": "view",
      "type": "function"
    },
    {
      "inputs": [
        {
          "internalType": "uint256",
          "name": "tokenId",
          "type": "uint256"
        }
      ],
      "name": "tokenURI",
      "outputs": [
        {
          "internalType": "string",
          "name": "",
          "type": "string"
        }
      ],
      "stateMutability": "view",
      "type": "function"
    },
    {
      "inputs": [],
      "name": "totalSupply",
      "outputs": [
        {
          "internalType": "uint256",
          "name": "",
          "type": "uint256"
        }
      ],
      "stateMutability": "view",
      "type": "function"
    },
    {
      "inputs": [
        {
          "internalType": "address",
          "name": "from",
          "type": "address"
        },
        {
          "internalType": "address",
          "name": "to",
          "type": "address"
        },
        {
          "internalType": "uint256",
          "name": "tokenId",
          "type": "uint256"
        }
      ],
      "name": "transferFrom",
      "outputs": [],
      "stateMutability": "nonpayable",
      "type": "function"
    },
    {
      "inputs": [
        {
          "internalType": "address",
          "name": "newOwner",
          "type": "address"
        }
      ],
      "name": "transferOwnership",
      "outputs": [],
      "stateMutability": "nonpayable",
      "type": "function"
    },
    {
      "inputs": [
        {
          "components": [
            {
              "internalType": "bool",
              "name": "isPublic",
              "type": "bool"
            },
            {
              "internalType": "uint104",
              "name": "publicPrice",
              "type": "uint104"
            },
            {
              "internalType": "bool",
              "name": "isWhitelist",
              "type": "bool"
            },
            {
              "internalType": "uint104",
              "name": "whitelistPrice",
              "type": "uint104"
            },
            {
              "internalType": "uint16",
              "name": "whitelistSupply",
              "type": "uint16"
            }
          ],
          "internalType": "struct YayoiKusamaHandbagArtwork.SaleInfo",
          "name": "newSaleInfo",
          "type": "tuple"
        }
      ],
      "name": "updateSaleInfo",
      "outputs": [],
      "stateMutability": "nonpayable",
      "type": "function"
    },
    {
      "inputs": [
        {
          "internalType": "address",
          "name": "",
          "type": "address"
        }
      ],
      "name": "whitelistAlreadyMinted",
      "outputs": [
        {
          "internalType": "uint8",
          "name": "",
          "type": "uint8"
        }
      ],
      "stateMutability": "view",
      "type": "function"
    },
    {
      "inputs": [
        {
          "internalType": "bytes",
          "name": "signature",
          "type": "bytes"
        },
        {
          "internalType": "uint8",
          "name": "amount",
          "type": "uint8"
        }
      ],
      "name": "whitelistMint",
      "outputs": [],
      "stateMutability": "payable",
      "type": "function"
    },
    {
      "inputs": [],
      "name": "withdraw",
      "outputs": [],
      "stateMutability": "nonpayable",
      "type": "function"
    }
  ],
  "transactionHash": "0x902cd1aa2ee7fd092ae30934d0215bdedb40ced9502cd2ec99df7867ae6ac4ca",
  "args": [
    "ipfs://QmafcRHT1EwasBR7KteNTmctGGv4mkNAyVfWEwYAfT9XAg",
    "ipfs://QmazDA25V9CyL55vuPJqqAH7dMe5TtAWjH2KdzXKHminH5/",
    "0xFC377879e83bc8E247E10B316aFbD00A9D165d16",
    "12000000000000000",
    "10000000000000000"
  ],
  "numDeployments": 6,
  "solcInputHash": "818071e6024a29c6532f71ca8ea05cce",
  "bytecode": "0x6101806040526000805560006007553480156200001b57600080fd5b5060405162003391380380620033918339810160408190526200003e9162000481565b604080518082018252600480825263594b484160e01b60208084018290528451808601865260018152603160f81b8183015285518087018752601c81527f5961796f69204b7573616d612048616e6462616720417274776f726b000000008184015286518088019097529386529085019190915291926005611b58620000c8565b60405180910390fd5b600082116200012a5760405162461bcd60e51b815260206004820152602760248201527f455243373231413a206d61782062617463682073697a65206d757374206265206044820152666e6f6e7a65726f60c81b6064820152608401620000bf565b83516200013f9060019060208701906200030b565b508251620001559060029060208601906200030b565b5060a091909152608052505081516020838101919091208251918301919091206101208290526101408190524660e0527f8b73c3c69bb8fe3d512ecc4cf759cc79239f7b179b0ffacaa9a75d522b39400f620001f68184846040805160208101859052908101839052606081018290524660808201523060a082015260009060c0016040516020818303038152906040528051906020012090509392505050565b60c0523060601b6101005261016052506200021d9250620002179150503390565b620002b9565b8451620002329060099060208801906200030b565b5083516200024890600a9060208701906200030b565b50600b80546001600160a01b0319166001600160a01b039490941693909317909255600d80546001600160e01b0319166101006001600160681b0393841602600160701b600160e01b03191617600160781b92909316919091029190911761ffff60e01b1916905550620005819050565b600880546001600160a01b038381166001600160a01b0319831681179093556040519116919082907f8be0079c531659141344cd1fd0a4f28419497f9722a3daafe3b4186f6b6457e090600090a35050565b82805462000319906200052e565b90600052602060002090601f0160209004810192826200033d576000855562000388565b82601f106200035857805160ff191683800117855562000388565b8280016001018555821562000388579182015b82811115620003885782518255916020019190600101906200036b565b50620003969291506200039a565b5090565b5b808211156200039657600081556001016200039b565b600082601f830112620003c2578081fd5b81516001600160401b0380821115620003df57620003df6200056b565b604051601f8301601f19908116603f011681019082821181831017156200040a576200040a6200056b565b8160405283815260209250868385880101111562000426578485fd5b8491505b838210156200044957858201830151818301840152908201906200042a565b838211156200045a57848385830101525b9695505050505050565b80516001600160681b03811681146200047c57600080fd5b919050565b600080600080600060a0868803121562000499578081fd5b85516001600160401b0380821115620004b0578283fd5b620004be89838a01620003b1565b96506020880151915080821115620004d4578283fd5b50620004e388828901620003b1565b604088015190955090506001600160a01b038116811462000502578182fd5b9250620005126060870162000464565b9150620005226080870162000464565b90509295509295909350565b600181811c908216806200054357607f821691505b602082108114156200056557634e487b7160e01b600052602260045260246000fd5b50919050565b634e487b7160e01b600052604160045260246000fd5b60805160a05160c05160e0516101005160601c610120516101405161016051612d9c620005f560003960006121f701526000612246015260006122210152600061217a015260006121a4015260006121ce015260008181611a6f01528181611a990152611f4f015260005050612d9c6000f3fe6080604052600436106101e35760003560e01c806370a0823111610102578063a60cc51711610095578063d7224ba011610064578063d7224ba0146105cf578063e8a3d485146105e5578063e985e9c5146105fa578063f2fde38b1461064357600080fd5b8063a60cc51714610559578063b88d4fde14610579578063c3979fb114610599578063c87b56dd146105af57600080fd5b80638e3695b8116100d15780638e3695b81461048857806395d89b4114610511578063a0712d6814610526578063a22cb4651461053957600080fd5b806370a0823114610420578063715018a61461044057806388084605146104555780638da5cb5b1461046a57600080fd5b80632fad121a1161017a5780634f6ccce7116101495780634f6ccce71461037e57806355f804b31461039e5780635d478877146103be5780636352211e1461040057600080fd5b80632fad121a1461030d57806332cb6b0c146103205780633ccfd60b1461034957806342842e0e1461035e57600080fd5b80630f5d66ad116101b65780630f5d66ad1461029957806318160ddd146102ae57806323b872dd146102cd5780632f745c59146102ed57600080fd5b806301ffc9a7146101e857806306fdde031461021d578063081812fc1461023f578063095ea7b314610277575b600080fd5b3480156101f457600080fd5b506102086102033660046128ef565b610663565b60405190151581526020015b60405180910390f35b34801561022957600080fd5b506102326106d0565b6040516102149190612aaf565b34801561024b57600080fd5b5061025f61025a3660046129ff565b610762565b6040516001600160a01b039091168152602001610214565b34801561028357600080fd5b506102976102923660046128ac565b6107f2565b005b3480156102a557600080fd5b5061029761090a565b3480156102ba57600080fd5b506000545b604051908152602001610214565b3480156102d957600080fd5b506102976102e8366004612773565b610955565b3480156102f957600080fd5b506102bf6103083660046128ac565b610960565b61029761031b366004612927565b610ace565b34801561032c57600080fd5b50610336611b5881565b60405161ffff9091168152602001610214565b34801561035557600080fd5b50610297610d6b565b34801561036a57600080fd5b50610297610379366004612773565b610d83565b34801561038a57600080fd5b506102bf6103993660046129ff565b610d9e565b3480156103aa57600080fd5b506102976103b9366004612981565b610e00565b3480156103ca57600080fd5b506103ee6103d9366004612727565b600c6020526000908152604090205460ff1681565b60405160ff9091168152602001610214565b34801561040c57600080fd5b5061025f61041b3660046129ff565b610e36565b34801561042c57600080fd5b506102bf61043b366004612727565b610e48565b34801561044c57600080fd5b50610297610ed9565b34801561046157600080fd5b50610297610f0d565b34801561047657600080fd5b506008546001600160a01b031661025f565b34801561049457600080fd5b50600d546104d59060ff808216916001600160681b036101008204811692600160701b83041691600160781b81049091169061ffff600160e01b9091041685565b6040805195151586526001600160681b03948516602087015292151592850192909252909116606083015261ffff16608082015260a001610214565b34801561051d57600080fd5b50610232610f4b565b6102976105343660046129ff565b610f5a565b34801561054557600080fd5b50610297610554366004612883565b611061565b34801561056557600080fd5b506102976105743660046129c1565b611126565b34801561058557600080fd5b506102976105943660046127ae565b61121b565b3480156105a557600080fd5b50610336610bb881565b3480156105bb57600080fd5b506102326105ca3660046129ff565b611254565b3480156105db57600080fd5b506102bf60075481565b3480156105f157600080fd5b50610232611321565b34801561060657600080fd5b50610208610615366004612741565b6001600160a01b03918216600090815260066020908152604080832093909416825291909152205460ff1690565b34801561064f57600080fd5b5061029761065e366004612727565b611330565b60006001600160e01b031982166380ac58cd60e01b148061069457506001600160e01b03198216635b5e139f60e01b145b806106af57506001600160e01b0319821663780e9d6360e01b145b806106ca57506301ffc9a760e01b6001600160e01b03198316145b92915050565b6060600180546106df90612caa565b80601f016020809104026020016040519081016040528092919081815260200182805461070b90612caa565b80156107585780601f1061072d57610100808354040283529160200191610758565b820191906000526020600020905b81548152906001019060200180831161073b57829003601f168201915b5050505050905090565b600061076f826000541190565b6107d65760405162461bcd60e51b815260206004820152602d60248201527f455243373231413a20617070726f76656420717565727920666f72206e6f6e6560448201526c3c34b9ba32b73a103a37b5b2b760991b60648201526084015b60405180910390fd5b506000908152600560205260409020546001600160a01b031690565b60006107fd82610e36565b9050806001600160a01b0316836001600160a01b0316141561086c5760405162461bcd60e51b815260206004820152602260248201527f455243373231413a20617070726f76616c20746f2063757272656e74206f776e60448201526132b960f11b60648201526084016107cd565b336001600160a01b038216148061088857506108888133610615565b6108fa5760405162461bcd60e51b815260206004820152603960248201527f455243373231413a20617070726f76652063616c6c6572206973206e6f74206f60448201527f776e6572206e6f7220617070726f76656420666f7220616c6c0000000000000060648201526084016107cd565b6109058383836113c8565b505050565b6008546001600160a01b031633146109345760405162461bcd60e51b81526004016107cd90612ac2565b600d805460ff60701b198116600160701b9182900460ff1615909102179055565b610905838383611424565b600061096b83610e48565b82106109c45760405162461bcd60e51b815260206004820152602260248201527f455243373231413a206f776e657220696e646578206f7574206f6620626f756e604482015261647360f01b60648201526084016107cd565b600080549080805b83811015610a6e576000818152600360209081526040918290208251808401909352546001600160a01b038116808452600160a01b90910467ffffffffffffffff169183019190915215610a1f57805192505b876001600160a01b0316836001600160a01b03161415610a5b5786841415610a4d575093506106ca92505050565b83610a5781612cdf565b9450505b5080610a6681612cdf565b9150506109cc565b5060405162461bcd60e51b815260206004820152602e60248201527f455243373231413a20756e61626c6520746f2067657420746f6b656e206f662060448201526d0deeedccae440c4f240d2dcc8caf60931b60648201526084016107cd565b610ad883836117ac565b600d54600160701b900460ff16610b295760405162461bcd60e51b81526020600482015260156024820152746e6f7420696e2077686974656c6973742073616c6560581b60448201526064016107cd565b611b5860ff8216610b3960005490565b610b439190612b89565b1115610b855760405162461bcd60e51b8152602060048201526011602482015270657863656564206d617820737570706c7960781b60448201526064016107cd565b600d54610bb890610ba59060ff841690600160e01b900461ffff16612b6c565b61ffff161115610bf75760405162461bcd60e51b815260206004820152601b60248201527f6578636565642077686974656c697374206d617820737570706c79000000000060448201526064016107cd565b600d805460ff83169190601c90610c1a908490600160e01b900461ffff16612b6c565b92506101000a81548161ffff021916908361ffff160217905550600560ff1681600c6000610c453390565b6001600160a01b03168152602081019190915260400160002054610c6c919060ff16612ba1565b60ff161115610cb65760405162461bcd60e51b81526020600482015260166024820152756578636565642077686974656c6973742071756f746160501b60448201526064016107cd565b336000908152600c602052604081208054839290610cd890849060ff16612ba1565b92506101000a81548160ff021916908360ff16021790555034600d600001600f9054906101000a90046001600160681b03168260ff16610d189190612bda565b6001600160681b031614610d5e5760405162461bcd60e51b815260206004820152600d60248201526c3830bcb6b2b73a1032b93937b960991b60448201526064016107cd565b610905338260ff166118b6565b600b54610d81906001600160a01b0316476118d4565b565b6109058383836040518060200160405280600081525061121b565b600080548210610dfc5760405162461bcd60e51b815260206004820152602360248201527f455243373231413a20676c6f62616c20696e646578206f7574206f6620626f756044820152626e647360e81b60648201526084016107cd565b5090565b6008546001600160a01b03163314610e2a5760405162461bcd60e51b81526004016107cd90612ac2565b610905600a838361262b565b6000610e41826119ed565b5192915050565b60006001600160a01b038216610eb45760405162461bcd60e51b815260206004820152602b60248201527f455243373231413a2062616c616e636520717565727920666f7220746865207a60448201526a65726f206164647265737360a81b60648201526084016107cd565b506001600160a01b03166000908152600460205260409020546001600160801b031690565b6008546001600160a01b03163314610f035760405162461bcd60e51b81526004016107cd90612ac2565b610d816000611b97565b6008546001600160a01b03163314610f375760405162461bcd60e51b81526004016107cd90612ac2565b600d805460ff19811660ff90911615179055565b6060600280546106df90612caa565b600d5460ff16610fa15760405162461bcd60e51b81526020600482015260126024820152716e6f7420696e207075626c69632073616c6560701b60448201526064016107cd565b611b5881610fae60005490565b610fb89190612b89565b1115610ffa5760405162461bcd60e51b8152602060048201526011602482015270657863656564206d617820737570706c7960781b60448201526064016107cd565b600d5434906110179061010090046001600160681b031683612c09565b146110545760405162461bcd60e51b815260206004820152600d60248201526c3830bcb6b2b73a1032b93937b960991b60448201526064016107cd565b61105e33826118b6565b50565b6001600160a01b0382163314156110ba5760405162461bcd60e51b815260206004820152601a60248201527f455243373231413a20617070726f766520746f2063616c6c657200000000000060448201526064016107cd565b3360008181526006602090815260408083206001600160a01b03871680855290835292819020805460ff191686151590811790915590519081529192917f17307eab39ab6107e8899845ad3d59bd9653f200f220920489ca2b5937696c31910160405180910390a35050565b6008546001600160a01b031633146111505760405162461bcd60e51b81526004016107cd90612ac2565b61115d60208201826128d5565b600d805460ff191691151591909117905561117e60408201602083016129d8565b600d80546001600160681b0392909216610100026dffffffffffffffffffffffffff00199092169190911790556111bb60608201604083016128d5565b600d8054911515600160701b0260ff60701b199092169190911790556111e760808201606083016129d8565b600d80546001600160681b0392909216600160781b026cffffffffffffffffffffffffff60781b1990921691909117905550565b611226848484611424565b61123284848484611be9565b61124e5760405162461bcd60e51b81526004016107cd90612af7565b50505050565b6060611261826000541190565b6112c55760405162461bcd60e51b815260206004820152602f60248201527f4552433732314d657461646174613a2055524920717565727920666f72206e6f60448201526e3732bc34b9ba32b73a103a37b5b2b760891b60648201526084016107cd565b60006112cf611cf7565b905060008151116112ef576040518060200160405280600081525061131a565b806112f984611d06565b60405160200161130a929190612a43565b6040516020818303038152906040525b9392505050565b6060600980546106df90612caa565b6008546001600160a01b0316331461135a5760405162461bcd60e51b81526004016107cd90612ac2565b6001600160a01b0381166113bf5760405162461bcd60e51b815260206004820152602660248201527f4f776e61626c653a206e6577206f776e657220697320746865207a65726f206160448201526564647265737360d01b60648201526084016107cd565b61105e81611b97565b60008281526005602052604080822080546001600160a01b0319166001600160a01b0387811691821790925591518593918516917f8c5be1e5ebec7d5bd14f71427d1e84f3dd0314c0f7b2291e5b200ac8c7c3b92591a4505050565b600061142f826119ed565b80519091506000906001600160a01b0316336001600160a01b0316148061146657503361145b84610762565b6001600160a01b0316145b80611478575081516114789033610615565b9050806114e25760405162461bcd60e51b815260206004820152603260248201527f455243373231413a207472616e736665722063616c6c6572206973206e6f74206044820152711bdddb995c881b9bdc88185c1c1c9bdd995960721b60648201526084016107cd565b846001600160a01b031682600001516001600160a01b0316146115565760405162461bcd60e51b815260206004820152602660248201527f455243373231413a207472616e736665722066726f6d20696e636f72726563746044820152651037bbb732b960d11b60648201526084016107cd565b6001600160a01b0384166115ba5760405162461bcd60e51b815260206004820152602560248201527f455243373231413a207472616e7366657220746f20746865207a65726f206164604482015264647265737360d81b60648201526084016107cd565b6115ca60008484600001516113c8565b6001600160a01b03851660009081526004602052604081208054600192906115fc9084906001600160801b0316612c28565b82546101009290920a6001600160801b038181021990931691831602179091556001600160a01b0386166000908152600460205260408120805460019450909261164891859116612b4a565b82546001600160801b039182166101009390930a9283029190920219909116179055506040805180820182526001600160a01b03808716825267ffffffffffffffff428116602080850191825260008981526003909152948520935184549151909216600160a01b026001600160e01b031990911691909216171790556116d0846001612b89565b6000818152600360205260409020549091506001600160a01b0316611762576116fa816000541190565b156117625760408051808201825284516001600160a01b03908116825260208087015167ffffffffffffffff9081168285019081526000878152600390935294909120925183549451909116600160a01b026001600160e01b03199094169116179190911790555b83856001600160a01b0316876001600160a01b03167fddf252ad1be2c89b69c2b068fc378daa952ba7f163c4a11628f55a4df523b3ef60405160405180910390a45b505050505050565b604080517fdabea70844bf24d9249fbcd43ff305a229af24da603ae5c43f957f44dcbd0bed602082015233918101919091526000906118039060600160405160208183030381529060405280519060200120611e20565b90506118458184848080601f016020809104026020016040519081016040528093929190818152602001838380828437600092019190915250611e6e92505050565b6001600160a01b03166118606008546001600160a01b031690565b6001600160a01b0316146109055760405162461bcd60e51b815260206004820152601760248201527f696e76616c6964206f7220756e617574686f72697a656400000000000000000060448201526064016107cd565b6118d0828260405180602001604052806000815250611e92565b5050565b804710156119245760405162461bcd60e51b815260206004820152601d60248201527f416464726573733a20696e73756666696369656e742062616c616e636500000060448201526064016107cd565b6000826001600160a01b03168260405160006040518083038185875af1925050503d8060008114611971576040519150601f19603f3d011682016040523d82523d6000602084013e611976565b606091505b50509050806109055760405162461bcd60e51b815260206004820152603a60248201527f416464726573733a20756e61626c6520746f2073656e642076616c75652c207260448201527f6563697069656e74206d6179206861766520726576657274656400000000000060648201526084016107cd565b6040805180820190915260008082526020820152611a0c826000541190565b611a6b5760405162461bcd60e51b815260206004820152602a60248201527f455243373231413a206f776e657220717565727920666f72206e6f6e657869736044820152693a32b73a103a37b5b2b760b11b60648201526084016107cd565b60007f00000000000000000000000000000000000000000000000000000000000000008310611acc57611abe7f000000000000000000000000000000000000000000000000000000000000000084612c50565b611ac9906001612b89565b90505b825b818110611b36576000818152600360209081526040918290208251808401909352546001600160a01b038116808452600160a01b90910467ffffffffffffffff169183019190915215611b2357949350505050565b5080611b2e81612c93565b915050611ace565b5060405162461bcd60e51b815260206004820152602f60248201527f455243373231413a20756e61626c6520746f2064657465726d696e652074686560448201526e1037bbb732b91037b3103a37b5b2b760891b60648201526084016107cd565b600880546001600160a01b038381166001600160a01b0319831681179093556040519116919082907f8be0079c531659141344cd1fd0a4f28419497f9722a3daafe3b4186f6b6457e090600090a35050565b60006001600160a01b0384163b15611ceb57604051630a85bd0160e11b81526001600160a01b0385169063150b7a0290611c2d903390899088908890600401612a72565b602060405180830381600087803b158015611c4757600080fd5b505af1925050508015611c77575060408051601f3d908101601f19168201909252611c749181019061290b565b60015b611cd1573d808015611ca5576040519150601f19603f3d011682016040523d82523d6000602084013e611caa565b606091505b508051611cc95760405162461bcd60e51b81526004016107cd90612af7565b805181602001fd5b6001600160e01b031916630a85bd0160e11b149050611cef565b5060015b949350505050565b6060600a80546106df90612caa565b606081611d2a5750506040805180820190915260018152600360fc1b602082015290565b8160005b8115611d545780611d3e81612cdf565b9150611d4d9050600a83612bc6565b9150611d2e565b60008167ffffffffffffffff811115611d7d57634e487b7160e01b600052604160045260246000fd5b6040519080825280601f01601f191660200182016040528015611da7576020820181803683370190505b5090505b8415611cef57611dbc600183612c50565b9150611dc9600a86612cfa565b611dd4906030612b89565b60f81b818381518110611df757634e487b7160e01b600052603260045260246000fd5b60200101906001600160f81b031916908160001a905350611e19600a86612bc6565b9450611dab565b60006106ca611e2d61216d565b8360405161190160f01b6020820152602281018390526042810182905260009060620160405160208183030381529060405280519060200120905092915050565b6000806000611e7d8585612294565b91509150611e8a81612304565b509392505050565b6000546001600160a01b038416611ef55760405162461bcd60e51b815260206004820152602160248201527f455243373231413a206d696e7420746f20746865207a65726f206164647265736044820152607360f81b60648201526084016107cd565b611f00816000541190565b15611f4d5760405162461bcd60e51b815260206004820152601d60248201527f455243373231413a20746f6b656e20616c7265616479206d696e74656400000060448201526064016107cd565b7f0000000000000000000000000000000000000000000000000000000000000000831115611fc85760405162461bcd60e51b815260206004820152602260248201527f455243373231413a207175616e7469747920746f206d696e7420746f6f2068696044820152610ced60f31b60648201526084016107cd565b6001600160a01b0384166000908152600460209081526040918290208251808401845290546001600160801b038082168352600160801b9091041691810191909152815180830190925280519091908190612024908790612b4a565b6001600160801b031681526020018583602001516120429190612b4a565b6001600160801b039081169091526001600160a01b0380881660008181526004602090815260408083208751978301518716600160801b0297909616969096179094558451808601865291825267ffffffffffffffff4281168386019081528883526003909552948120915182549451909516600160a01b026001600160e01b031990941694909216939093179190911790915582905b858110156121625760405182906001600160a01b038916906000907fddf252ad1be2c89b69c2b068fc378daa952ba7f163c4a11628f55a4df523b3ef908290a46121266000888488611be9565b6121425760405162461bcd60e51b81526004016107cd90612af7565b8161214c81612cdf565b925050808061215a90612cdf565b9150506120d9565b5060008190556117a4565b6000306001600160a01b037f0000000000000000000000000000000000000000000000000000000000000000161480156121c657507f000000000000000000000000000000000000000000000000000000000000000046145b156121f057507f000000000000000000000000000000000000000000000000000000000000000090565b50604080517f00000000000000000000000000000000000000000000000000000000000000006020808301919091527f0000000000000000000000000000000000000000000000000000000000000000828401527f000000000000000000000000000000000000000000000000000000000000000060608301524660808301523060a0808401919091528351808403909101815260c0909201909252805191012090565b6000808251604114156122cb5760208301516040840151606085015160001a6122bf87828585612505565b945094505050506122fd565b8251604014156122f557602083015160408401516122ea8683836125f2565b9350935050506122fd565b506000905060025b9250929050565b600081600481111561232657634e487b7160e01b600052602160045260246000fd5b141561232f5750565b600181600481111561235157634e487b7160e01b600052602160045260246000fd5b141561239f5760405162461bcd60e51b815260206004820152601860248201527f45434453413a20696e76616c6964207369676e6174757265000000000000000060448201526064016107cd565b60028160048111156123c157634e487b7160e01b600052602160045260246000fd5b141561240f5760405162461bcd60e51b815260206004820152601f60248201527f45434453413a20696e76616c6964207369676e6174757265206c656e6774680060448201526064016107cd565b600381600481111561243157634e487b7160e01b600052602160045260246000fd5b141561248a5760405162461bcd60e51b815260206004820152602260248201527f45434453413a20696e76616c6964207369676e6174757265202773272076616c604482015261756560f01b60648201526084016107cd565b60048160048111156124ac57634e487b7160e01b600052602160045260246000fd5b141561105e5760405162461bcd60e51b815260206004820152602260248201527f45434453413a20696e76616c6964207369676e6174757265202776272076616c604482015261756560f01b60648201526084016107cd565b6000807f7fffffffffffffffffffffffffffffff5d576e7357a4501ddfe92f46681b20a083111561253c57506000905060036125e9565b8460ff16601b1415801561255457508460ff16601c14155b1561256557506000905060046125e9565b6040805160008082526020820180845289905260ff881692820192909252606081018690526080810185905260019060a0016020604051602081039080840390855afa1580156125b9573d6000803e3d6000fd5b5050604051601f1901519150506001600160a01b0381166125e2576000600192509250506125e9565b9150600090505b94509492505050565b6000806001600160ff1b0383168161260f60ff86901c601b612b89565b905061261d87828885612505565b935093505050935093915050565b82805461263790612caa565b90600052602060002090601f016020900481019282612659576000855561269f565b82601f106126725782800160ff1982351617855561269f565b8280016001018555821561269f579182015b8281111561269f578235825591602001919060010190612684565b50610dfc9291505b80821115610dfc57600081556001016126a7565b80356001600160a01b03811681146126d257600080fd5b919050565b803580151581146126d257600080fd5b60008083601f8401126126f8578182fd5b50813567ffffffffffffffff81111561270f578182fd5b6020830191508360208285010111156122fd57600080fd5b600060208284031215612738578081fd5b61131a826126bb565b60008060408385031215612753578081fd5b61275c836126bb565b915061276a602084016126bb565b90509250929050565b600080600060608486031215612787578081fd5b612790846126bb565b925061279e602085016126bb565b9150604084013590509250925092565b600080600080608085870312156127c3578081fd5b6127cc856126bb565b93506127da602086016126bb565b925060408501359150606085013567ffffffffffffffff808211156127fd578283fd5b818701915087601f830112612810578283fd5b81358181111561282257612822612d3a565b604051601f8201601f19908116603f0116810190838211818310171561284a5761284a612d3a565b816040528281528a6020848701011115612862578586fd5b82602086016020830137918201602001949094529598949750929550505050565b60008060408385031215612895578182fd5b61289e836126bb565b915061276a602084016126d7565b600080604083850312156128be578182fd5b6128c7836126bb565b946020939093013593505050565b6000602082840312156128e6578081fd5b61131a826126d7565b600060208284031215612900578081fd5b813561131a81612d50565b60006020828403121561291c578081fd5b815161131a81612d50565b60008060006040848603121561293b578283fd5b833567ffffffffffffffff811115612951578384fd5b61295d868287016126e7565b909450925050602084013560ff81168114612976578182fd5b809150509250925092565b60008060208385031215612993578182fd5b823567ffffffffffffffff8111156129a9578283fd5b6129b5858286016126e7565b90969095509350505050565b600060a082840312156129d2578081fd5b50919050565b6000602082840312156129e9578081fd5b81356001600160681b038116811461131a578182fd5b600060208284031215612a10578081fd5b5035919050565b60008151808452612a2f816020860160208601612c67565b601f01601f19169290920160200192915050565b60008351612a55818460208801612c67565b835190830190612a69818360208801612c67565b01949350505050565b6001600160a01b0385811682528416602082015260408101839052608060608201819052600090612aa590830184612a17565b9695505050505050565b60208152600061131a6020830184612a17565b6020808252818101527f4f776e61626c653a2063616c6c6572206973206e6f7420746865206f776e6572604082015260600190565b60208082526033908201527f455243373231413a207472616e7366657220746f206e6f6e204552433732315260408201527232b1b2b4bb32b91034b6b83632b6b2b73a32b960691b606082015260800190565b60006001600160801b03808316818516808303821115612a6957612a69612d0e565b600061ffff808316818516808303821115612a6957612a69612d0e565b60008219821115612b9c57612b9c612d0e565b500190565b600060ff821660ff84168060ff03821115612bbe57612bbe612d0e565b019392505050565b600082612bd557612bd5612d24565b500490565b60006001600160681b0380831681851681830481118215151615612c0057612c00612d0e565b02949350505050565b6000816000190483118215151615612c2357612c23612d0e565b500290565b60006001600160801b0383811690831681811015612c4857612c48612d0e565b039392505050565b600082821015612c6257612c62612d0e565b500390565b60005b83811015612c82578181015183820152602001612c6a565b8381111561124e5750506000910152565b600081612ca257612ca2612d0e565b506000190190565b600181811c90821680612cbe57607f821691505b602082108114156129d257634e487b7160e01b600052602260045260246000fd5b6000600019821415612cf357612cf3612d0e565b5060010190565b600082612d0957612d09612d24565b500690565b634e487b7160e01b600052601160045260246000fd5b634e487b7160e01b600052601260045260246000fd5b634e487b7160e01b600052604160045260246000fd5b6001600160e01b03198116811461105e57600080fdfea2646970667358221220296438101dd596f71864d1c24287c5801049858805a3a0d3187cd34dc4cdc02f64736f6c63430008040033",
  "devdoc": {
    "author": "Japan NFT Culture Association (https://www.jnca.io)",
    "kind": "dev",
    "methods": {
      "approve(address,uint256)": {
        "details": "See {IERC721-approve}."
      },
      "balanceOf(address)": {
        "details": "See {IERC721-balanceOf}."
      },
      "constructor": {
        "details": "Setup contractURI, initial base URI, ERC721"
      },
      "flipPublicSale()": {
        "details": "Flip public sale state"
      },
      "flipWhitelistSale()": {
        "details": "Flip whitelist sale state"
      },
      "getApproved(uint256)": {
        "details": "See {IERC721-getApproved}."
      },
      "isApprovedForAll(address,address)": {
        "details": "See {IERC721-isApprovedForAll}."
      },
      "name()": {
        "details": "See {IERC721Metadata-name}."
      },
      "owner()": {
        "details": "Returns the address of the current owner."
      },
      "ownerOf(uint256)": {
        "details": "See {IERC721-ownerOf}."
      },
      "renounceOwnership()": {
        "details": "Leaves the contract without owner. It will not be possible to call `onlyOwner` functions anymore. Can only be called by the current owner. NOTE: Renouncing ownership will leave the contract without an owner, thereby removing any functionality that is only available to the owner."
      },
      "safeTransferFrom(address,address,uint256)": {
        "details": "See {IERC721-safeTransferFrom}."
      },
      "safeTransferFrom(address,address,uint256,bytes)": {
        "details": "See {IERC721-safeTransferFrom}."
      },
      "setApprovalForAll(address,bool)": {
        "details": "See {IERC721-setApprovalForAll}."
      },
      "setBaseURI(string)": {
        "details": "Change base URI to reveal NFT"
      },
      "supportsInterface(bytes4)": {
        "details": "See {IERC165-supportsInterface}."
      },
      "symbol()": {
        "details": "See {IERC721Metadata-symbol}."
      },
      "tokenByIndex(uint256)": {
        "details": "See {IERC721Enumerable-tokenByIndex}."
      },
      "tokenOfOwnerByIndex(address,uint256)": {
        "details": "See {IERC721Enumerable-tokenOfOwnerByIndex}. This read function is O(collectionSize). If calling from a separate contract, be sure to test gas first. It may also degrade with extremely large collection sizes (e.g >> 10000), test for your use case."
      },
      "tokenURI(uint256)": {
        "details": "See {IERC721Metadata-tokenURI}."
      },
      "totalSupply()": {
        "details": "See {IERC721Enumerable-totalSupply}."
      },
      "transferFrom(address,address,uint256)": {
        "details": "See {IERC721-transferFrom}."
      },
      "transferOwnership(address)": {
        "details": "Transfers ownership of the contract to a new account (`newOwner`). Can only be called by the current owner."
      },
      "updateSaleInfo((bool,uint104,bool,uint104,uint16))": {
        "details": "Update sale info (without changing whitelist supply)"
      },
      "withdraw()": {
        "details": "Withdraw fund from contract to receiver"
      }
    },
    "title": "Artwork NFT by Yayoi Kusama",
    "version": 1
  },
  "userdoc": {
    "kind": "user",
    "methods": {
      "contractURI()": {
        "notice": "Contract info read by marketplace"
      },
      "mint(uint256)": {
        "notice": "Mint certain amount of tokens"
      },
      "whitelistMint(bytes,uint8)": {
        "notice": "Mint for whitelist (EIP712)"
      }
    },
    "version": 1
  },
  "storageLayout": {
    "storage": [
      {
        "astId": 1453,
        "contract": "contracts/YayoiKusamaHandbagArtwork.sol:YayoiKusamaHandbagArtwork",
        "label": "currentIndex",
        "offset": 0,
        "slot": "0",
        "type": "t_uint256"
      },
      {
        "astId": 1459,
        "contract": "contracts/YayoiKusamaHandbagArtwork.sol:YayoiKusamaHandbagArtwork",
        "label": "_name",
        "offset": 0,
        "slot": "1",
        "type": "t_string_storage"
      },
      {
        "astId": 1461,
        "contract": "contracts/YayoiKusamaHandbagArtwork.sol:YayoiKusamaHandbagArtwork",
        "label": "_symbol",
        "offset": 0,
        "slot": "2",
        "type": "t_string_storage"
      },
      {
        "astId": 1466,
        "contract": "contracts/YayoiKusamaHandbagArtwork.sol:YayoiKusamaHandbagArtwork",
        "label": "_ownerships",
        "offset": 0,
        "slot": "3",
        "type": "t_mapping(t_uint256,t_struct(TokenOwnership)1445_storage)"
      },
      {
        "astId": 1471,
        "contract": "contracts/YayoiKusamaHandbagArtwork.sol:YayoiKusamaHandbagArtwork",
        "label": "_addressData",
        "offset": 0,
        "slot": "4",
        "type": "t_mapping(t_address,t_struct(AddressData)1450_storage)"
      },
      {
        "astId": 1475,
        "contract": "contracts/YayoiKusamaHandbagArtwork.sol:YayoiKusamaHandbagArtwork",
        "label": "_tokenApprovals",
        "offset": 0,
        "slot": "5",
        "type": "t_mapping(t_uint256,t_address)"
      },
      {
        "astId": 1481,
        "contract": "contracts/YayoiKusamaHandbagArtwork.sol:YayoiKusamaHandbagArtwork",
        "label": "_operatorApprovals",
        "offset": 0,
        "slot": "6",
        "type": "t_mapping(t_address,t_mapping(t_address,t_bool))"
      },
      {
        "astId": 2424,
        "contract": "contracts/YayoiKusamaHandbagArtwork.sol:YayoiKusamaHandbagArtwork",
        "label": "nextOwnerToExplicitlySet",
        "offset": 0,
        "slot": "7",
        "type": "t_uint256"
      },
      {
        "astId": 7,
        "contract": "contracts/YayoiKusamaHandbagArtwork.sol:YayoiKusamaHandbagArtwork",
        "label": "_owner",
        "offset": 0,
        "slot": "8",
        "type": "t_address"
      },
      {
        "astId": 2632,
        "contract": "contracts/YayoiKusamaHandbagArtwork.sol:YayoiKusamaHandbagArtwork",
        "label": "_contractURI",
        "offset": 0,
        "slot": "9",
        "type": "t_string_storage"
      },
      {
        "astId": 2634,
        "contract": "contracts/YayoiKusamaHandbagArtwork.sol:YayoiKusamaHandbagArtwork",
        "label": "_tokenBaseURI",
        "offset": 0,
        "slot": "10",
        "type": "t_string_storage"
      },
      {
        "astId": 2636,
        "contract": "contracts/YayoiKusamaHandbagArtwork.sol:YayoiKusamaHandbagArtwork",
        "label": "_fundReceiver",
        "offset": 0,
        "slot": "11",
        "type": "t_address_payable"
      },
      {
        "astId": 2640,
        "contract": "contracts/YayoiKusamaHandbagArtwork.sol:YayoiKusamaHandbagArtwork",
        "label": "whitelistAlreadyMinted",
        "offset": 0,
        "slot": "12",
        "type": "t_mapping(t_address,t_uint8)"
      },
      {
        "astId": 2654,
        "contract": "contracts/YayoiKusamaHandbagArtwork.sol:YayoiKusamaHandbagArtwork",
        "label": "saleInfo",
        "offset": 0,
        "slot": "13",
        "type": "t_struct(SaleInfo)2651_storage"
      }
    ],
    "types": {
      "t_address": {
        "encoding": "inplace",
        "label": "address",
        "numberOfBytes": "20"
      },
      "t_address_payable": {
        "encoding": "inplace",
        "label": "address payable",
        "numberOfBytes": "20"
      },
      "t_bool": {
        "encoding": "inplace",
        "label": "bool",
        "numberOfBytes": "1"
      },
      "t_mapping(t_address,t_bool)": {
        "encoding": "mapping",
        "key": "t_address",
        "label": "mapping(address => bool)",
        "numberOfBytes": "32",
        "value": "t_bool"
      },
      "t_mapping(t_address,t_mapping(t_address,t_bool))": {
        "encoding": "mapping",
        "key": "t_address",
        "label": "mapping(address => mapping(address => bool))",
        "numberOfBytes": "32",
        "value": "t_mapping(t_address,t_bool)"
      },
      "t_mapping(t_address,t_struct(AddressData)1450_storage)": {
        "encoding": "mapping",
        "key": "t_address",
        "label": "mapping(address => struct ERC721A.AddressData)",
        "numberOfBytes": "32",
        "value": "t_struct(AddressData)1450_storage"
      },
      "t_mapping(t_address,t_uint8)": {
        "encoding": "mapping",
        "key": "t_address",
        "label": "mapping(address => uint8)",
        "numberOfBytes": "32",
        "value": "t_uint8"
      },
      "t_mapping(t_uint256,t_address)": {
        "encoding": "mapping",
        "key": "t_uint256",
        "label": "mapping(uint256 => address)",
        "numberOfBytes": "32",
        "value": "t_address"
      },
      "t_mapping(t_uint256,t_struct(TokenOwnership)1445_storage)": {
        "encoding": "mapping",
        "key": "t_uint256",
        "label": "mapping(uint256 => struct ERC721A.TokenOwnership)",
        "numberOfBytes": "32",
        "value": "t_struct(TokenOwnership)1445_storage"
      },
      "t_string_storage": {
        "encoding": "bytes",
        "label": "string",
        "numberOfBytes": "32"
      },
      "t_struct(AddressData)1450_storage": {
        "encoding": "inplace",
        "label": "struct ERC721A.AddressData",
        "members": [
          {
            "astId": 1447,
            "contract": "contracts/YayoiKusamaHandbagArtwork.sol:YayoiKusamaHandbagArtwork",
            "label": "balance",
            "offset": 0,
            "slot": "0",
            "type": "t_uint128"
          },
          {
            "astId": 1449,
            "contract": "contracts/YayoiKusamaHandbagArtwork.sol:YayoiKusamaHandbagArtwork",
            "label": "numberMinted",
            "offset": 16,
            "slot": "0",
            "type": "t_uint128"
          }
        ],
        "numberOfBytes": "32"
      },
      "t_struct(SaleInfo)2651_storage": {
        "encoding": "inplace",
        "label": "struct YayoiKusamaHandbagArtwork.SaleInfo",
        "members": [
          {
            "astId": 2642,
            "contract": "contracts/YayoiKusamaHandbagArtwork.sol:YayoiKusamaHandbagArtwork",
            "label": "isPublic",
            "offset": 0,
            "slot": "0",
            "type": "t_bool"
          },
          {
            "astId": 2644,
            "contract": "contracts/YayoiKusamaHandbagArtwork.sol:YayoiKusamaHandbagArtwork",
            "label": "publicPrice",
            "offset": 1,
            "slot": "0",
            "type": "t_uint104"
          },
          {
            "astId": 2646,
            "contract": "contracts/YayoiKusamaHandbagArtwork.sol:YayoiKusamaHandbagArtwork",
            "label": "isWhitelist",
            "offset": 14,
            "slot": "0",
            "type": "t_bool"
          },
          {
            "astId": 2648,
            "contract": "contracts/YayoiKusamaHandbagArtwork.sol:YayoiKusamaHandbagArtwork",
            "label": "whitelistPrice",
            "offset": 15,
            "slot": "0",
            "type": "t_uint104"
          },
          {
            "astId": 2650,
            "contract": "contracts/YayoiKusamaHandbagArtwork.sol:YayoiKusamaHandbagArtwork",
            "label": "whitelistSupply",
            "offset": 28,
            "slot": "0",
            "type": "t_uint16"
          }
        ],
        "numberOfBytes": "32"
      },
      "t_struct(TokenOwnership)1445_storage": {
        "encoding": "inplace",
        "label": "struct ERC721A.TokenOwnership",
        "members": [
          {
            "astId": 1442,
            "contract": "contracts/YayoiKusamaHandbagArtwork.sol:YayoiKusamaHandbagArtwork",
            "label": "addr",
            "offset": 0,
            "slot": "0",
            "type": "t_address"
          },
          {
            "astId": 1444,
            "contract": "contracts/YayoiKusamaHandbagArtwork.sol:YayoiKusamaHandbagArtwork",
            "label": "startTimestamp",
            "offset": 20,
            "slot": "0",
            "type": "t_uint64"
          }
        ],
        "numberOfBytes": "32"
      },
      "t_uint104": {
        "encoding": "inplace",
        "label": "uint104",
        "numberOfBytes": "13"
      },
      "t_uint128": {
        "encoding": "inplace",
        "label": "uint128",
        "numberOfBytes": "16"
      },
      "t_uint16": {
        "encoding": "inplace",
        "label": "uint16",
        "numberOfBytes": "2"
      },
      "t_uint256": {
        "encoding": "inplace",
        "label": "uint256",
        "numberOfBytes": "32"
      },
      "t_uint64": {
        "encoding": "inplace",
        "label": "uint64",
        "numberOfBytes": "8"
      },
      "t_uint8": {
        "encoding": "inplace",
        "label": "uint8",
        "numberOfBytes": "1"
      }
    }
  }
}